{
  "_format": "hh-sol-artifact-1",
  "contractName": "DStorageDapp",
  "sourceName": "contracts/Storage Contract/DStorageDapp.sol",
  "abi": [
    {
      "anonymous": false,
      "inputs": [
        {
          "indexed": false,
          "internalType": "string",
          "name": "action",
          "type": "string"
        },
        {
          "indexed": false,
          "internalType": "address",
          "name": "uploader",
          "type": "address"
        },
        {
          "indexed": false,
          "internalType": "uint256",
          "name": "uploaderTime",
          "type": "uint256"
        }
      ],
      "name": "FileUploadedEvent",
      "type": "event"
    },
    {
      "inputs": [],
      "name": "contractName",
      "outputs": [
        {
          "internalType": "string",
          "name": "",
          "type": "string"
        }
      ],
      "stateMutability": "view",
      "type": "function"
    },
    {
      "inputs": [
        {
          "internalType": "uint256",
          "name": "_id",
          "type": "uint256"
        }
      ],
      "name": "deleteFile",
      "outputs": [],
      "stateMutability": "nonpayable",
      "type": "function"
    },
    {
      "inputs": [
        {
          "internalType": "uint256",
          "name": "_id",
          "type": "uint256"
        }
      ],
      "name": "deleteFileForever",
      "outputs": [],
      "stateMutability": "nonpayable",
      "type": "function"
    },
    {
      "inputs": [
        {
          "internalType": "uint256",
          "name": "_id",
          "type": "uint256"
        },
        {
          "internalType": "string",
          "name": "_name",
          "type": "string"
        },
        {
          "internalType": "string",
          "name": "_des",
          "type": "string"
        }
      ],
      "name": "editFileDeatils",
      "outputs": [],
      "stateMutability": "nonpayable",
      "type": "function"
    },
    {
      "inputs": [
        {
          "internalType": "uint256",
          "name": "_fileId",
          "type": "uint256"
        }
      ],
      "name": "getFileOf",
      "outputs": [
        {
          "components": [
            {
              "internalType": "uint256",
              "name": "fileId",
              "type": "uint256"
            },
            {
              "internalType": "string",
              "name": "fileHash",
              "type": "string"
            },
            {
              "internalType": "uint256",
              "name": "fileSize",
              "type": "uint256"
            },
            {
              "internalType": "string",
              "name": "fileType",
              "type": "string"
            },
            {
              "internalType": "string",
              "name": "fileName",
              "type": "string"
            },
            {
              "internalType": "string",
              "name": "fileDes",
              "type": "string"
            },
            {
              "internalType": "uint256",
              "name": "uploadTime",
              "type": "uint256"
            },
            {
              "internalType": "address",
              "name": "uploader",
              "type": "address"
            }
          ],
          "internalType": "struct DStorageDapp.File",
          "name": "",
          "type": "tuple"
        }
      ],
      "stateMutability": "view",
      "type": "function"
    },
    {
      "inputs": [],
      "name": "getTotalFileCount",
      "outputs": [
        {
          "internalType": "uint256",
          "name": "",
          "type": "uint256"
        }
      ],
      "stateMutability": "view",
      "type": "function"
    },
    {
      "inputs": [
        {
          "internalType": "string",
          "name": "_fileHash",
          "type": "string"
        },
        {
          "internalType": "uint256",
          "name": "_fileSize",
          "type": "uint256"
        },
        {
          "internalType": "string",
          "name": "_fileType",
          "type": "string"
        },
        {
          "internalType": "string",
          "name": "_fileName",
          "type": "string"
        },
        {
          "internalType": "string",
          "name": "_fileDescription",
          "type": "string"
        }
      ],
      "name": "uploadFile",
      "outputs": [],
      "stateMutability": "nonpayable",
      "type": "function"
    }
  ],
  "bytecode": "0x60806040526040518060400160405280601581526020017f446563656e7472616c697a65642053746f726167650000000000000000000000815250600090805190602001906200005192919062000066565b503480156200005f57600080fd5b506200017b565b828054620000749062000145565b90600052602060002090601f016020900481019282620000985760008555620000e4565b82601f10620000b357805160ff1916838001178555620000e4565b82800160010185558215620000e4579182015b82811115620000e3578251825591602001919060010190620000c6565b5b509050620000f39190620000f7565b5090565b5b8082111562000112576000816000905550600101620000f8565b5090565b7f4e487b7100000000000000000000000000000000000000000000000000000000600052602260045260246000fd5b600060028204905060018216806200015e57607f821691505b6020821081141562000175576200017462000116565b5b50919050565b611392806200018b6000396000f3fe608060405234801561001057600080fd5b506004361061007d5760003560e01c8063c46e20921161005b578063c46e2092146100ec578063c5b420061461010a578063dd986f1614610126578063e82d9d33146101425761007d565b80632b8b3c8f146100825780634495e2161461009e57806375d0c0dc146100ce575b600080fd5b61009c60048036038101906100979190610df4565b61015e565b005b6100b860048036038101906100b39190610e7f565b610233565b6040516100c59190611049565b60405180910390f35b6100d661055a565b6040516100e391906110b5565b60405180910390f35b6100f46105e8565b60405161010191906110e6565b60405180910390f35b610124600480360381019061011f9190610e7f565b61062f565b005b610140600480360381019061013b9190610e7f565b6106cf565b005b61015c60048036038101906101579190611101565b61085d565b005b81600260003373ffffffffffffffffffffffffffffffffffffffff1673ffffffffffffffffffffffffffffffffffffffff168152602001908152602001600020600085815260200190815260200160002060040190805190602001906101c5929190610b66565b5080600260003373ffffffffffffffffffffffffffffffffffffffff1673ffffffffffffffffffffffffffffffffffffffff1681526020019081526020016000206000858152602001908152602001600020600501908051906020019061022d929190610b66565b50505050565b61023b610bec565b600260003373ffffffffffffffffffffffffffffffffffffffff1673ffffffffffffffffffffffffffffffffffffffff168152602001908152602001600020600083815260200190815260200160002060405180610100016040529081600082015481526020016001820180546102b19061121b565b80601f01602080910402602001604051908101604052809291908181526020018280546102dd9061121b565b801561032a5780601f106102ff5761010080835404028352916020019161032a565b820191906000526020600020905b81548152906001019060200180831161030d57829003601f168201915b505050505081526020016002820154815260200160038201805461034d9061121b565b80601f01602080910402602001604051908101604052809291908181526020018280546103799061121b565b80156103c65780601f1061039b576101008083540402835291602001916103c6565b820191906000526020600020905b8154815290600101906020018083116103a957829003601f168201915b505050505081526020016004820180546103df9061121b565b80601f016020809104026020016040519081016040528092919081815260200182805461040b9061121b565b80156104585780601f1061042d57610100808354040283529160200191610458565b820191906000526020600020905b81548152906001019060200180831161043b57829003601f168201915b505050505081526020016005820180546104719061121b565b80601f016020809104026020016040519081016040528092919081815260200182805461049d9061121b565b80156104ea5780601f106104bf576101008083540402835291602001916104ea565b820191906000526020600020905b8154815290600101906020018083116104cd57829003601f168201915b50505050508152602001600682015481526020016007820160009054906101000a900473ffffffffffffffffffffffffffffffffffffffff1673ffffffffffffffffffffffffffffffffffffffff1673ffffffffffffffffffffffffffffffffffffffff16815250509050919050565b600080546105679061121b565b80601f01602080910402602001604051908101604052809291908181526020018280546105939061121b565b80156105e05780601f106105b5576101008083540402835291602001916105e0565b820191906000526020600020905b8154815290600101906020018083116105c357829003601f168201915b505050505081565b6000600160003373ffffffffffffffffffffffffffffffffffffffff1673ffffffffffffffffffffffffffffffffffffffff16815260200190815260200160002054905090565b6040518060400160405280600981526020017f3064656c657465645f0000000000000000000000000000000000000000000000815250600260003373ffffffffffffffffffffffffffffffffffffffff1673ffffffffffffffffffffffffffffffffffffffff168152602001908152602001600020600083815260200190815260200160002060040190805190602001906106cb929190610b66565b5050565b60405180602001604052806000815250600260003373ffffffffffffffffffffffffffffffffffffffff1673ffffffffffffffffffffffffffffffffffffffff16815260200190815260200160002060008381526020019081526020016000206001019080519060200190610745929190610b66565b506040518060400160405280601181526020017f3064656c657465645f666f72657665725f000000000000000000000000000000815250600260003373ffffffffffffffffffffffffffffffffffffffff1673ffffffffffffffffffffffffffffffffffffffff168152602001908152602001600020600083815260200190815260200160002060040190805190602001906107e2929190610b66565b5060405180602001604052806000815250600260003373ffffffffffffffffffffffffffffffffffffffff1673ffffffffffffffffffffffffffffffffffffffff16815260200190815260200160002060008381526020019081526020016000206005019080519060200190610859929190610b66565b5050565b6000855111801561086f575060008351115b801561087c575060008151115b8015610889575060008251115b80156108c25750600073ffffffffffffffffffffffffffffffffffffffff163373ffffffffffffffffffffffffffffffffffffffff1614155b80156108ce5750600084115b6108d757600080fd5b600160003373ffffffffffffffffffffffffffffffffffffffff1673ffffffffffffffffffffffffffffffffffffffff16815260200190815260200160002060008154809291906109279061127c565b9190505550604051806101000160405280600160003373ffffffffffffffffffffffffffffffffffffffff1673ffffffffffffffffffffffffffffffffffffffff1681526020019081526020016000205481526020018681526020018581526020018481526020018381526020018281526020014281526020013373ffffffffffffffffffffffffffffffffffffffff16815250600260003373ffffffffffffffffffffffffffffffffffffffff1673ffffffffffffffffffffffffffffffffffffffff1681526020019081526020016000206000600160003373ffffffffffffffffffffffffffffffffffffffff1673ffffffffffffffffffffffffffffffffffffffff168152602001908152602001600020548152602001908152602001600020600082015181600001556020820151816001019080519060200190610a70929190610b66565b50604082015181600201556060820151816003019080519060200190610a97929190610b66565b506080820151816004019080519060200190610ab4929190610b66565b5060a0820151816005019080519060200190610ad1929190610b66565b5060c0820151816006015560e08201518160070160006101000a81548173ffffffffffffffffffffffffffffffffffffffff021916908373ffffffffffffffffffffffffffffffffffffffff1602179055509050507fc3fccc1c197ba2a77befde16501925c3cbb1285b4b4a5bd8eba5cfcb5f046cc13342604051610b57929190611320565b60405180910390a15050505050565b828054610b729061121b565b90600052602060002090601f016020900481019282610b945760008555610bdb565b82601f10610bad57805160ff1916838001178555610bdb565b82800160010185558215610bdb579182015b82811115610bda578251825591602001919060010190610bbf565b5b509050610be89190610c47565b5090565b60405180610100016040528060008152602001606081526020016000815260200160608152602001606081526020016060815260200160008152602001600073ffffffffffffffffffffffffffffffffffffffff1681525090565b5b80821115610c60576000816000905550600101610c48565b5090565b6000604051905090565b600080fd5b600080fd5b6000819050919050565b610c8b81610c78565b8114610c9657600080fd5b50565b600081359050610ca881610c82565b92915050565b600080fd5b600080fd5b6000601f19601f8301169050919050565b7f4e487b7100000000000000000000000000000000000000000000000000000000600052604160045260246000fd5b610d0182610cb8565b810181811067ffffffffffffffff82111715610d2057610d1f610cc9565b5b80604052505050565b6000610d33610c64565b9050610d3f8282610cf8565b919050565b600067ffffffffffffffff821115610d5f57610d5e610cc9565b5b610d6882610cb8565b9050602081019050919050565b82818337600083830152505050565b6000610d97610d9284610d44565b610d29565b905082815260208101848484011115610db357610db2610cb3565b5b610dbe848285610d75565b509392505050565b600082601f830112610ddb57610dda610cae565b5b8135610deb848260208601610d84565b91505092915050565b600080600060608486031215610e0d57610e0c610c6e565b5b6000610e1b86828701610c99565b935050602084013567ffffffffffffffff811115610e3c57610e3b610c73565b5b610e4886828701610dc6565b925050604084013567ffffffffffffffff811115610e6957610e68610c73565b5b610e7586828701610dc6565b9150509250925092565b600060208284031215610e9557610e94610c6e565b5b6000610ea384828501610c99565b91505092915050565b610eb581610c78565b82525050565b600081519050919050565b600082825260208201905092915050565b60005b83811015610ef5578082015181840152602081019050610eda565b83811115610f04576000848401525b50505050565b6000610f1582610ebb565b610f1f8185610ec6565b9350610f2f818560208601610ed7565b610f3881610cb8565b840191505092915050565b600073ffffffffffffffffffffffffffffffffffffffff82169050919050565b6000610f6e82610f43565b9050919050565b610f7e81610f63565b82525050565b600061010083016000830151610f9d6000860182610eac565b5060208301518482036020860152610fb58282610f0a565b9150506040830151610fca6040860182610eac565b5060608301518482036060860152610fe28282610f0a565b91505060808301518482036080860152610ffc8282610f0a565b91505060a083015184820360a08601526110168282610f0a565b91505060c083015161102b60c0860182610eac565b5060e083015161103e60e0860182610f75565b508091505092915050565b600060208201905081810360008301526110638184610f84565b905092915050565b600082825260208201905092915050565b600061108782610ebb565b611091818561106b565b93506110a1818560208601610ed7565b6110aa81610cb8565b840191505092915050565b600060208201905081810360008301526110cf818461107c565b905092915050565b6110e081610c78565b82525050565b60006020820190506110fb60008301846110d7565b92915050565b600080600080600060a0868803121561111d5761111c610c6e565b5b600086013567ffffffffffffffff81111561113b5761113a610c73565b5b61114788828901610dc6565b955050602061115888828901610c99565b945050604086013567ffffffffffffffff81111561117957611178610c73565b5b61118588828901610dc6565b935050606086013567ffffffffffffffff8111156111a6576111a5610c73565b5b6111b288828901610dc6565b925050608086013567ffffffffffffffff8111156111d3576111d2610c73565b5b6111df88828901610dc6565b9150509295509295909350565b7f4e487b7100000000000000000000000000000000000000000000000000000000600052602260045260246000fd5b6000600282049050600182168061123357607f821691505b60208210811415611247576112466111ec565b5b50919050565b7f4e487b7100000000000000000000000000000000000000000000000000000000600052601160045260246000fd5b600061128782610c78565b91507fffffffffffffffffffffffffffffffffffffffffffffffffffffffffffffffff8214156112ba576112b961124d565b5b600182019050919050565b7f46696c652055706c6f6164656400000000000000000000000000000000000000600082015250565b60006112fb600d8361106b565b9150611306826112c5565b602082019050919050565b61131a81610f63565b82525050565b60006060820190508181036000830152611339816112ee565b90506113486020830185611311565b61135560408301846110d7565b939250505056fea26469706673582212200ee355559ff654c59c625999914ae1c46dd1d67dde13be47fdbc71dd0421138764736f6c63430008090033",
  "linkReferences": {},
  "deployedLinkReferences": {}
}