{
  "_format": "hh-sol-artifact-1",
  "contractName": "LandRegistration",
  "sourceName": "contracts/land Contract/LandRegistration.sol",
  "abi": [
    {
      "inputs": [
        {
          "internalType": "address",
          "name": "_account",
          "type": "address"
        }
      ],
      "stateMutability": "nonpayable",
      "type": "constructor"
    },
    {
      "inputs": [
        {
          "internalType": "uint256",
          "name": "_uniqueNumber",
          "type": "uint256"
        }
      ],
      "name": "Buyer",
      "outputs": [
        {
          "internalType": "address",
          "name": "",
          "type": "address"
        },
        {
          "internalType": "uint256",
          "name": "",
          "type": "uint256"
        },
        {
          "internalType": "bool",
          "name": "",
          "type": "bool"
        },
        {
          "internalType": "address",
          "name": "",
          "type": "address"
        },
        {
          "internalType": "enum LandRegistration.ReqStatus",
          "name": "",
          "type": "uint8"
        }
      ],
      "stateMutability": "view",
      "type": "function"
    },
    {
      "inputs": [
        {
          "internalType": "uint256",
          "name": "_uniqueNumber",
          "type": "uint256"
        }
      ],
      "name": "Owner",
      "outputs": [
        {
          "internalType": "string",
          "name": "",
          "type": "string"
        },
        {
          "internalType": "string",
          "name": "",
          "type": "string"
        },
        {
          "internalType": "string",
          "name": "",
          "type": "string"
        },
        {
          "internalType": "uint256",
          "name": "",
          "type": "uint256"
        },
        {
          "internalType": "bool",
          "name": "",
          "type": "bool"
        },
        {
          "internalType": "address",
          "name": "",
          "type": "address"
        },
        {
          "internalType": "enum LandRegistration.ReqStatus",
          "name": "",
          "type": "uint8"
        }
      ],
      "stateMutability": "view",
      "type": "function"
    },
    {
      "inputs": [
        {
          "internalType": "address",
          "name": "_manager",
          "type": "address"
        },
        {
          "internalType": "string",
          "name": "_district",
          "type": "string"
        }
      ],
      "name": "addManager",
      "outputs": [],
      "stateMutability": "nonpayable",
      "type": "function"
    },
    {
      "inputs": [
        {
          "internalType": "address",
          "name": "_addr",
          "type": "address"
        }
      ],
      "name": "checkId",
      "outputs": [
        {
          "internalType": "uint256",
          "name": "",
          "type": "uint256"
        }
      ],
      "stateMutability": "view",
      "type": "function"
    },
    {
      "inputs": [
        {
          "internalType": "uint256",
          "name": "_id",
          "type": "uint256"
        },
        {
          "internalType": "address",
          "name": "_addr",
          "type": "address"
        }
      ],
      "name": "findIndex",
      "outputs": [
        {
          "internalType": "uint256",
          "name": "",
          "type": "uint256"
        }
      ],
      "stateMutability": "view",
      "type": "function"
    },
    {
      "inputs": [
        {
          "internalType": "uint256",
          "name": "_uniqueNumber",
          "type": "uint256"
        }
      ],
      "name": "makeAvailable",
      "outputs": [],
      "stateMutability": "nonpayable",
      "type": "function"
    },
    {
      "inputs": [
        {
          "internalType": "uint256",
          "name": "_uniqueNumber",
          "type": "uint256"
        },
        {
          "internalType": "enum LandRegistration.ReqStatus",
          "name": "status",
          "type": "uint8"
        }
      ],
      "name": "processRequest",
      "outputs": [],
      "stateMutability": "nonpayable",
      "type": "function"
    },
    {
      "inputs": [
        {
          "internalType": "uint256",
          "name": "_uniqueNumber",
          "type": "uint256"
        }
      ],
      "name": "purchaseLand",
      "outputs": [],
      "stateMutability": "payable",
      "type": "function"
    },
    {
      "inputs": [
        {
          "internalType": "string",
          "name": "_state",
          "type": "string"
        },
        {
          "internalType": "string",
          "name": "_district",
          "type": "string"
        },
        {
          "internalType": "string",
          "name": "_location",
          "type": "string"
        },
        {
          "internalType": "string",
          "name": "_landmark",
          "type": "string"
        },
        {
          "internalType": "uint256",
          "name": "_plotNumber",
          "type": "uint256"
        },
        {
          "internalType": "address payable",
          "name": "_ownerAddress",
          "type": "address"
        },
        {
          "internalType": "uint256",
          "name": "_priceSelling",
          "type": "uint256"
        }
      ],
      "name": "register",
      "outputs": [
        {
          "internalType": "bool",
          "name": "",
          "type": "bool"
        }
      ],
      "stateMutability": "nonpayable",
      "type": "function"
    },
    {
      "inputs": [
        {
          "internalType": "uint256",
          "name": "_uniqueNumber",
          "type": "uint256"
        }
      ],
      "name": "requestToLandOwner",
      "outputs": [],
      "stateMutability": "nonpayable",
      "type": "function"
    },
    {
      "inputs": [],
      "name": "viewAssets",
      "outputs": [
        {
          "internalType": "uint256[]",
          "name": "",
          "type": "uint256[]"
        }
      ],
      "stateMutability": "view",
      "type": "function"
    },
    {
      "inputs": [
        {
          "internalType": "uint256",
          "name": "_uniqueNumber",
          "type": "uint256"
        }
      ],
      "name": "viewRequest",
      "outputs": [
        {
          "internalType": "address",
          "name": "",
          "type": "address"
        }
      ],
      "stateMutability": "view",
      "type": "function"
    }
  ],
  "bytecode": "0x60806040523480156200001157600080fd5b506040516200297e3803806200297e833981810160405281019062000037919062000129565b33600260006101000a81548173ffffffffffffffffffffffffffffffffffffffff021916908373ffffffffffffffffffffffffffffffffffffffff160217905550806000806101000a81548173ffffffffffffffffffffffffffffffffffffffff021916908373ffffffffffffffffffffffffffffffffffffffff160217905550506200015b565b600080fd5b600073ffffffffffffffffffffffffffffffffffffffff82169050919050565b6000620000f182620000c4565b9050919050565b6200010381620000e4565b81146200010f57600080fd5b50565b6000815190506200012381620000f8565b92915050565b600060208284031215620001425762000141620000bf565b5b6000620001528482850162000112565b91505092915050565b612813806200016b6000396000f3fe6080604052600436106100a75760003560e01c80637d1bfeb6116100645780637d1bfeb6146101f85780638009d5d71461022157806384af87921461023d578063baa39e0514610280578063e77cb984146102a9578063fdb10f50146102e6576100a7565b80630d2d5dca146100ac57806314085c9f146100d7578063229c76eb14610114578063240bb17b1461013d57806326e852501461017a5780633ea3a44b146101b7575b600080fd5b3480156100b857600080fd5b506100c161030f565b6040516100ce91906118b3565b60405180910390f35b3480156100e357600080fd5b506100fe60048036038101906100f99190611973565b6103a7565b60405161010b91906119c2565b60405180910390f35b34801561012057600080fd5b5061013b60048036038101906101369190611b23565b610489565b005b34801561014957600080fd5b50610164600480360381019061015f9190611b7f565b61057a565b60405161017191906119c2565b60405180910390f35b34801561018657600080fd5b506101a1600480360381019061019c9190611bac565b61062d565b6040516101ae9190611be8565b60405180910390f35b3480156101c357600080fd5b506101de60048036038101906101d99190611bac565b61066d565b6040516101ef959493929190611c95565b60405180910390f35b34801561020457600080fd5b5061021f600480360381019061021a9190611bac565b610755565b005b61023b60048036038101906102369190611bac565b61087d565b005b34801561024957600080fd5b50610264600480360381019061025f9190611bac565b610c07565b6040516102779796959493929190611d70565b60405180910390f35b34801561028c57600080fd5b506102a760048036038101906102a29190611bac565b610ea7565b005b3480156102b557600080fd5b506102d060048036038101906102cb9190611e32565b610f7c565b6040516102dd9190611f44565b60405180910390f35b3480156102f257600080fd5b5061030d60048036038101906103089190611f84565b611327565b005b6060600460003373ffffffffffffffffffffffffffffffffffffffff1673ffffffffffffffffffffffffffffffffffffffff16815260200190815260200160002060000180548060200260200160405190810160405280929190818152602001828054801561039d57602002820191906000526020600020905b815481526020019060010190808311610389575b5050505050905090565b600080600090505b600460008473ffffffffffffffffffffffffffffffffffffffff1673ffffffffffffffffffffffffffffffffffffffff1681526020019081526020016000206000018054905081101561047e5783600460008573ffffffffffffffffffffffffffffffffffffffff1673ffffffffffffffffffffffffffffffffffffffff168152602001908152602001600020600001828154811061045157610450611fc4565b5b9060005260206000200154141561046b5780915050610483565b808061047690612022565b9150506103af565b809150505b92915050565b600260009054906101000a900473ffffffffffffffffffffffffffffffffffffffff1673ffffffffffffffffffffffffffffffffffffffff163373ffffffffffffffffffffffffffffffffffffffff1614610519576040517f08c379a0000000000000000000000000000000000000000000000000000000008152600401610510906120b7565b60405180910390fd5b8160038260405161052a9190612113565b908152602001604051809103902060006101000a81548173ffffffffffffffffffffffffffffffffffffffff021916908373ffffffffffffffffffffffffffffffffffffffff1602179055505050565b60008060009054906101000a900473ffffffffffffffffffffffffffffffffffffffff1673ffffffffffffffffffffffffffffffffffffffff1663240bb17b836040518263ffffffff1660e01b81526004016105d69190611be8565b60206040518083038186803b1580156105ee57600080fd5b505afa158015610602573d6000803e3d6000fd5b505050506040513d601f19601f82011682018060405250810190610626919061213f565b9050919050565b60006001600083815260200190815260200160002060070160019054906101000a900473ffffffffffffffffffffffffffffffffffffffff169050919050565b60008060008060006001600087815260200190815260200160002060050160009054906101000a900473ffffffffffffffffffffffffffffffffffffffff1660016000888152602001908152602001600020600601546001600089815260200190815260200160002060070160009054906101000a900460ff16600160008a815260200190815260200160002060070160019054906101000a900473ffffffffffffffffffffffffffffffffffffffff16600160008b815260200190815260200160002060070160159054906101000a900460ff169450945094509450945091939590929450565b6001600082815260200190815260200160002060070160009054906101000a900460ff166107b8576040517f08c379a00000000000000000000000000000000000000000000000000000000081526004016107af906121b8565b60405180910390fd5b336001600083815260200190815260200160002060070160016101000a81548173ffffffffffffffffffffffffffffffffffffffff021916908373ffffffffffffffffffffffffffffffffffffffff16021790555060006001600083815260200190815260200160002060070160006101000a81548160ff021916908315150217905550600180600083815260200190815260200160002060070160156101000a81548160ff0219169083600381111561087557610874611c1e565b5b021790555050565b6003808111156108905761088f611c1e565b5b6001600083815260200190815260200160002060070160159054906101000a900460ff1660038111156108c6576108c5611c1e565b5b14610906576040517f08c379a00000000000000000000000000000000000000000000000000000000081526004016108fd9061224a565b60405180910390fd5b600160008281526020019081526020016000206006015434101561095f576040517f08c379a0000000000000000000000000000000000000000000000000000000008152600401610956906122dc565b60405180910390fd5b60006001600083815260200190815260200160002060050160009054906101000a900473ffffffffffffffffffffffffffffffffffffffff1673ffffffffffffffffffffffffffffffffffffffff16346040516109bb9061232d565b60006040518083038185875af1925050503d80600081146109f8576040519150601f19603f3d011682016040523d82523d6000602084013e6109fd565b606091505b5050905080610a41576040517f08c379a0000000000000000000000000000000000000000000000000000000008152600401610a389061238e565b60405180910390fd5b610a816001600084815260200190815260200160002060050160009054906101000a900473ffffffffffffffffffffffffffffffffffffffff16836114d0565b336001600084815260200190815260200160002060050160006101000a81548173ffffffffffffffffffffffffffffffffffffffff021916908373ffffffffffffffffffffffffffffffffffffffff16021790555060006001600084815260200190815260200160002060070160006101000a81548160ff02191690831515021790555060006001600084815260200190815260200160002060070160016101000a81548173ffffffffffffffffffffffffffffffffffffffff021916908373ffffffffffffffffffffffffffffffffffffffff16021790555060006001600084815260200190815260200160002060070160156101000a81548160ff02191690836003811115610b9557610b94611c1e565b5b0217905550600460003373ffffffffffffffffffffffffffffffffffffffff1673ffffffffffffffffffffffffffffffffffffffff1681526020019081526020016000206000018290806001815401808255809150506001900390600052602060002001600090919091909150555050565b606080606060008060008060016000898152602001908152602001600020600001600160008a8152602001908152602001600020600101600160008b8152602001908152602001600020600201600160008c815260200190815260200160002060040154600160008d815260200190815260200160002060070160009054906101000a900460ff16600160008e815260200190815260200160002060070160019054906101000a900473ffffffffffffffffffffffffffffffffffffffff16600160008f815260200190815260200160002060070160159054906101000a900460ff16868054610cf6906123dd565b80601f0160208091040260200160405190810160405280929190818152602001828054610d22906123dd565b8015610d6f5780601f10610d4457610100808354040283529160200191610d6f565b820191906000526020600020905b815481529060010190602001808311610d5257829003601f168201915b50505050509650858054610d82906123dd565b80601f0160208091040260200160405190810160405280929190818152602001828054610dae906123dd565b8015610dfb5780601f10610dd057610100808354040283529160200191610dfb565b820191906000526020600020905b815481529060010190602001808311610dde57829003601f168201915b50505050509550848054610e0e906123dd565b80601f0160208091040260200160405190810160405280929190818152602001828054610e3a906123dd565b8015610e875780601f10610e5c57610100808354040283529160200191610e87565b820191906000526020600020905b815481529060010190602001808311610e6a57829003601f168201915b505050505094509650965096509650965096509650919395979092949650565b3373ffffffffffffffffffffffffffffffffffffffff166001600083815260200190815260200160002060050160009054906101000a900473ffffffffffffffffffffffffffffffffffffffff1673ffffffffffffffffffffffffffffffffffffffff1614610f4b576040517f08c379a0000000000000000000000000000000000000000000000000000000008152600401610f4290612481565b60405180910390fd5b600180600083815260200190815260200160002060070160006101000a81548160ff02191690831515021790555050565b600080610f8b85888a8c6116fb565b90506000600160008381526020019081526020016000206004015414610fe6576040517f08c379a0000000000000000000000000000000000000000000000000000000008152600401610fdd906124ed565b60405180910390fd5b600388604051610ff69190612113565b908152602001604051809103902060009054906101000a900473ffffffffffffffffffffffffffffffffffffffff1673ffffffffffffffffffffffffffffffffffffffff163373ffffffffffffffffffffffffffffffffffffffff1614806110ab5750600260009054906101000a900473ffffffffffffffffffffffffffffffffffffffff1673ffffffffffffffffffffffffffffffffffffffff163373ffffffffffffffffffffffffffffffffffffffff16145b6110ea576040517f08c379a00000000000000000000000000000000000000000000000000000000081526004016110e19061257f565b60405180910390fd5b88600160008381526020019081526020016000206000019080519060200190611114929190611748565b508760016000838152602001908152602001600020600101908051906020019061113f929190611748565b508660016000838152602001908152602001600020600201908051906020019061116a929190611748565b5085600160008381526020019081526020016000206003019080519060200190611195929190611748565b50846001600083815260200190815260200160002060040181905550836001600083815260200190815260200160002060050160006101000a81548173ffffffffffffffffffffffffffffffffffffffff021916908373ffffffffffffffffffffffffffffffffffffffff160217905550826001600083815260200190815260200160002060060181905550600460008573ffffffffffffffffffffffffffffffffffffffff1673ffffffffffffffffffffffffffffffffffffffff16815260200190815260200160002060000181908060018154018082558091505060019003906000526020600020016000909190919091505560008054906101000a900473ffffffffffffffffffffffffffffffffffffffff1673ffffffffffffffffffffffffffffffffffffffff1663d204c45e85896040518363ffffffff1660e01b81526004016112e59291906125fe565b600060405180830381600087803b1580156112ff57600080fd5b505af1158015611313573d6000803e3d6000fd5b505050506001915050979650505050505050565b3373ffffffffffffffffffffffffffffffffffffffff166001600084815260200190815260200160002060050160009054906101000a900473ffffffffffffffffffffffffffffffffffffffff1673ffffffffffffffffffffffffffffffffffffffff16146113cb576040517f08c379a00000000000000000000000000000000000000000000000000000000081526004016113c2906126c6565b60405180910390fd5b806001600084815260200190815260200160002060070160156101000a81548160ff0219169083600381111561140457611403611c1e565b5b02179055506002600381111561141d5761141c611c1e565b5b8160038111156114305761142f611c1e565b5b14156114cc5760006001600084815260200190815260200160002060070160016101000a81548173ffffffffffffffffffffffffffffffffffffffff021916908373ffffffffffffffffffffffffffffffffffffffff16021790555060006001600084815260200190815260200160002060070160156101000a81548160ff021916908360038111156114c6576114c5611c1e565b5b02179055505b5050565b60006114dc82846103a7565b9050600460008473ffffffffffffffffffffffffffffffffffffffff1673ffffffffffffffffffffffffffffffffffffffff1681526020019081526020016000206000016001600460008673ffffffffffffffffffffffffffffffffffffffff1673ffffffffffffffffffffffffffffffffffffffff1681526020019081526020016000206000018054905061157291906126e6565b8154811061158357611582611fc4565b5b9060005260206000200154600460008573ffffffffffffffffffffffffffffffffffffffff1673ffffffffffffffffffffffffffffffffffffffff16815260200190815260200160002060000182815481106115e2576115e1611fc4565b5b9060005260206000200181905550600460008473ffffffffffffffffffffffffffffffffffffffff1673ffffffffffffffffffffffffffffffffffffffff1681526020019081526020016000206000016001600460008673ffffffffffffffffffffffffffffffffffffffff1673ffffffffffffffffffffffffffffffffffffffff1681526020019081526020016000206000018054905061168491906126e6565b8154811061169557611694611fc4565b5b90600052602060002001600090556001600460008573ffffffffffffffffffffffffffffffffffffffff1673ffffffffffffffffffffffffffffffffffffffff168152602001908152602001600020600001805490506116f591906126e6565b50505050565b60006509184e72a0008585858560405160200161171b949392919061273b565b6040516020818303038152906040528051906020012060001c61173e91906127ac565b9050949350505050565b828054611754906123dd565b90600052602060002090601f01602090048101928261177657600085556117bd565b82601f1061178f57805160ff19168380011785556117bd565b828001600101855582156117bd579182015b828111156117bc5782518255916020019190600101906117a1565b5b5090506117ca91906117ce565b5090565b5b808211156117e75760008160009055506001016117cf565b5090565b600081519050919050565b600082825260208201905092915050565b6000819050602082019050919050565b6000819050919050565b61182a81611817565b82525050565b600061183c8383611821565b60208301905092915050565b6000602082019050919050565b6000611860826117eb565b61186a81856117f6565b935061187583611807565b8060005b838110156118a657815161188d8882611830565b975061189883611848565b925050600181019050611879565b5085935050505092915050565b600060208201905081810360008301526118cd8184611855565b905092915050565b6000604051905090565b600080fd5b600080fd5b6118f281611817565b81146118fd57600080fd5b50565b60008135905061190f816118e9565b92915050565b600073ffffffffffffffffffffffffffffffffffffffff82169050919050565b600061194082611915565b9050919050565b61195081611935565b811461195b57600080fd5b50565b60008135905061196d81611947565b92915050565b6000806040838503121561198a576119896118df565b5b600061199885828601611900565b92505060206119a98582860161195e565b9150509250929050565b6119bc81611817565b82525050565b60006020820190506119d760008301846119b3565b92915050565b600080fd5b600080fd5b6000601f19601f8301169050919050565b7f4e487b7100000000000000000000000000000000000000000000000000000000600052604160045260246000fd5b611a30826119e7565b810181811067ffffffffffffffff82111715611a4f57611a4e6119f8565b5b80604052505050565b6000611a626118d5565b9050611a6e8282611a27565b919050565b600067ffffffffffffffff821115611a8e57611a8d6119f8565b5b611a97826119e7565b9050602081019050919050565b82818337600083830152505050565b6000611ac6611ac184611a73565b611a58565b905082815260208101848484011115611ae257611ae16119e2565b5b611aed848285611aa4565b509392505050565b600082601f830112611b0a57611b096119dd565b5b8135611b1a848260208601611ab3565b91505092915050565b60008060408385031215611b3a57611b396118df565b5b6000611b488582860161195e565b925050602083013567ffffffffffffffff811115611b6957611b686118e4565b5b611b7585828601611af5565b9150509250929050565b600060208284031215611b9557611b946118df565b5b6000611ba38482850161195e565b91505092915050565b600060208284031215611bc257611bc16118df565b5b6000611bd084828501611900565b91505092915050565b611be281611935565b82525050565b6000602082019050611bfd6000830184611bd9565b92915050565b60008115159050919050565b611c1881611c03565b82525050565b7f4e487b7100000000000000000000000000000000000000000000000000000000600052602160045260246000fd5b60048110611c5e57611c5d611c1e565b5b50565b6000819050611c6f82611c4d565b919050565b6000611c7f82611c61565b9050919050565b611c8f81611c74565b82525050565b600060a082019050611caa6000830188611bd9565b611cb760208301876119b3565b611cc46040830186611c0f565b611cd16060830185611bd9565b611cde6080830184611c86565b9695505050505050565b600081519050919050565b600082825260208201905092915050565b60005b83811015611d22578082015181840152602081019050611d07565b83811115611d31576000848401525b50505050565b6000611d4282611ce8565b611d4c8185611cf3565b9350611d5c818560208601611d04565b611d65816119e7565b840191505092915050565b600060e0820190508181036000830152611d8a818a611d37565b90508181036020830152611d9e8189611d37565b90508181036040830152611db28188611d37565b9050611dc160608301876119b3565b611dce6080830186611c0f565b611ddb60a0830185611bd9565b611de860c0830184611c86565b98975050505050505050565b6000611dff82611915565b9050919050565b611e0f81611df4565b8114611e1a57600080fd5b50565b600081359050611e2c81611e06565b92915050565b600080600080600080600060e0888a031215611e5157611e506118df565b5b600088013567ffffffffffffffff811115611e6f57611e6e6118e4565b5b611e7b8a828b01611af5565b975050602088013567ffffffffffffffff811115611e9c57611e9b6118e4565b5b611ea88a828b01611af5565b965050604088013567ffffffffffffffff811115611ec957611ec86118e4565b5b611ed58a828b01611af5565b955050606088013567ffffffffffffffff811115611ef657611ef56118e4565b5b611f028a828b01611af5565b9450506080611f138a828b01611900565b93505060a0611f248a828b01611e1d565b92505060c0611f358a828b01611900565b91505092959891949750929550565b6000602082019050611f596000830184611c0f565b92915050565b60048110611f6c57600080fd5b50565b600081359050611f7e81611f5f565b92915050565b60008060408385031215611f9b57611f9a6118df565b5b6000611fa985828601611900565b9250506020611fba85828601611f6f565b9150509250929050565b7f4e487b7100000000000000000000000000000000000000000000000000000000600052603260045260246000fd5b7f4e487b7100000000000000000000000000000000000000000000000000000000600052601160045260246000fd5b600061202d82611817565b91507fffffffffffffffffffffffffffffffffffffffffffffffffffffffffffffffff8214156120605761205f611ff3565b5b600182019050919050565b7f4f6e6c79204465706c6f7965722063616e20616464204d616e61676572000000600082015250565b60006120a1601d83611cf3565b91506120ac8261206b565b602082019050919050565b600060208201905081810360008301526120d081612094565b9050919050565b600081905092915050565b60006120ed82611ce8565b6120f781856120d7565b9350612107818560208601611d04565b80840191505092915050565b600061211f82846120e2565b915081905092915050565b600081519050612139816118e9565b92915050565b600060208284031215612155576121546118df565b5b60006121638482850161212a565b91505092915050565b7f54686973206c616e64206973206e6f7420617661696c61626c65000000000000600082015250565b60006121a2601a83611cf3565b91506121ad8261216c565b602082019050919050565b600060208201905081810360008301526121d181612195565b9050919050565b7f546865204f776e6572206f6620746865206c616e64206861736e74206170707260008201527f6f766564207468652073616c6573000000000000000000000000000000000000602082015250565b6000612234602e83611cf3565b915061223f826121d8565b604082019050919050565b6000602082019050818103600083015261226381612227565b9050919050565b7f5468652070726963652073686f756c64206265206d6f726520746861206f722060008201527f657175616c20746f207468652073656c6c696e67207072696365000000000000602082015250565b60006122c6603a83611cf3565b91506122d18261226a565b604082019050919050565b600060208201905081810360008301526122f5816122b9565b9050919050565b600081905092915050565b50565b60006123176000836122fc565b915061232282612307565b600082019050919050565b60006123388261230a565b9150819050919050565b7f6661696c656420746f2073656e64000000000000000000000000000000000000600082015250565b6000612378600e83611cf3565b915061238382612342565b602082019050919050565b600060208201905081810360008301526123a78161236b565b9050919050565b7f4e487b7100000000000000000000000000000000000000000000000000000000600052602260045260246000fd5b600060028204905060018216806123f557607f821691505b60208210811415612409576124086123ae565b5b50919050565b7f4f6e6c79206f776e6572206f662070726f70657274792063616e206d616b652060008201527f697420617661696c61626c650000000000000000000000000000000000000000602082015250565b600061246b602c83611cf3565b91506124768261240f565b604082019050919050565b6000602082019050818103600083015261249a8161245e565b9050919050565b7f4c616e6420616c72656164792065786973747300000000000000000000000000600082015250565b60006124d7601383611cf3565b91506124e2826124a1565b602082019050919050565b60006020820190508181036000830152612506816124ca565b9050919050565b7f4f6e6c792061206d616e61676572206f6620746869732064697374726963742060008201527f63616e207265676973746572206c616e64206f776e6572730000000000000000602082015250565b6000612569603883611cf3565b91506125748261250d565b604082019050919050565b600060208201905081810360008301526125988161255c565b9050919050565b6000819050919050565b60006125c46125bf6125ba84611915565b61259f565b611915565b9050919050565b60006125d6826125a9565b9050919050565b60006125e8826125cb565b9050919050565b6125f8816125dd565b82525050565b600060408201905061261360008301856125ef565b81810360208301526126258184611d37565b90509392505050565b7f596f752063616e6e6f742070726f63657373207265717565737420636175736560008201527f20796f7520617265206e6f7420746865206f776e6572206f662074686520617360208201527f7365740000000000000000000000000000000000000000000000000000000000604082015250565b60006126b0604383611cf3565b91506126bb8261262e565b606082019050919050565b600060208201905081810360008301526126df816126a3565b9050919050565b60006126f182611817565b91506126fc83611817565b92508282101561270f5761270e611ff3565b5b828203905092915050565b6000819050919050565b61273561273082611817565b61271a565b82525050565b60006127478287612724565b60208201915061275782866120e2565b915061276382856120e2565b915061276f82846120e2565b915081905095945050505050565b7f4e487b7100000000000000000000000000000000000000000000000000000000600052601260045260246000fd5b60006127b782611817565b91506127c283611817565b9250826127d2576127d161277d565b5b82820690509291505056fea26469706673582212203cbb36ca21661f7bc63c7ef7a98e0ccfc2a92ab4a7016488343c35239fb205b264736f6c63430008090033",
  "linkReferences": {},
  "deployedLinkReferences": {}
}