{
  "_format": "hh-sol-artifact-1",
  "contractName": "MyToken",
  "sourceName": "contracts/Ticketing Contract/Token.sol",
  "abi": [
    {
      "inputs": [],
      "stateMutability": "nonpayable",
      "type": "constructor"
    },
    {
      "anonymous": false,
      "inputs": [
        {
          "indexed": true,
          "internalType": "address",
          "name": "owner",
          "type": "address"
        },
        {
          "indexed": true,
          "internalType": "address",
          "name": "approved",
          "type": "address"
        },
        {
          "indexed": true,
          "internalType": "uint256",
          "name": "tokenId",
          "type": "uint256"
        }
      ],
      "name": "Approval",
      "type": "event"
    },
    {
      "anonymous": false,
      "inputs": [
        {
          "indexed": true,
          "internalType": "address",
          "name": "owner",
          "type": "address"
        },
        {
          "indexed": true,
          "internalType": "address",
          "name": "operator",
          "type": "address"
        },
        {
          "indexed": false,
          "internalType": "bool",
          "name": "approved",
          "type": "bool"
        }
      ],
      "name": "ApprovalForAll",
      "type": "event"
    },
    {
      "anonymous": false,
      "inputs": [
        {
          "indexed": true,
          "internalType": "address",
          "name": "previousOwner",
          "type": "address"
        },
        {
          "indexed": true,
          "internalType": "address",
          "name": "newOwner",
          "type": "address"
        }
      ],
      "name": "OwnershipTransferred",
      "type": "event"
    },
    {
      "anonymous": false,
      "inputs": [
        {
          "indexed": true,
          "internalType": "address",
          "name": "from",
          "type": "address"
        },
        {
          "indexed": true,
          "internalType": "address",
          "name": "to",
          "type": "address"
        },
        {
          "indexed": true,
          "internalType": "uint256",
          "name": "tokenId",
          "type": "uint256"
        }
      ],
      "name": "Transfer",
      "type": "event"
    },
    {
      "inputs": [
        {
          "internalType": "address",
          "name": "to",
          "type": "address"
        },
        {
          "internalType": "uint256",
          "name": "tokenId",
          "type": "uint256"
        }
      ],
      "name": "approve",
      "outputs": [],
      "stateMutability": "nonpayable",
      "type": "function"
    },
    {
      "inputs": [
        {
          "internalType": "address",
          "name": "",
          "type": "address"
        }
      ],
      "name": "balance",
      "outputs": [
        {
          "internalType": "uint256",
          "name": "",
          "type": "uint256"
        }
      ],
      "stateMutability": "view",
      "type": "function"
    },
    {
      "inputs": [
        {
          "internalType": "address",
          "name": "owner",
          "type": "address"
        }
      ],
      "name": "balanceOf",
      "outputs": [
        {
          "internalType": "uint256",
          "name": "",
          "type": "uint256"
        }
      ],
      "stateMutability": "view",
      "type": "function"
    },
    {
      "inputs": [
        {
          "internalType": "string",
          "name": "_eventId",
          "type": "string"
        },
        {
          "internalType": "uint64",
          "name": "_totaltokens",
          "type": "uint64"
        }
      ],
      "name": "bulkMint",
      "outputs": [],
      "stateMutability": "nonpayable",
      "type": "function"
    },
    {
      "inputs": [
        {
          "internalType": "address",
          "name": "_addr",
          "type": "address"
        }
      ],
      "name": "checkId",
      "outputs": [
        {
          "internalType": "uint256",
          "name": "",
          "type": "uint256"
        }
      ],
      "stateMutability": "view",
      "type": "function"
    },
    {
      "inputs": [
        {
          "internalType": "uint256",
          "name": "tokenId",
          "type": "uint256"
        }
      ],
      "name": "getApproved",
      "outputs": [
        {
          "internalType": "address",
          "name": "",
          "type": "address"
        }
      ],
      "stateMutability": "view",
      "type": "function"
    },
    {
      "inputs": [
        {
          "internalType": "address",
          "name": "owner",
          "type": "address"
        },
        {
          "internalType": "address",
          "name": "operator",
          "type": "address"
        }
      ],
      "name": "isApprovedForAll",
      "outputs": [
        {
          "internalType": "bool",
          "name": "",
          "type": "bool"
        }
      ],
      "stateMutability": "view",
      "type": "function"
    },
    {
      "inputs": [],
      "name": "name",
      "outputs": [
        {
          "internalType": "string",
          "name": "",
          "type": "string"
        }
      ],
      "stateMutability": "view",
      "type": "function"
    },
    {
      "inputs": [],
      "name": "owner",
      "outputs": [
        {
          "internalType": "address",
          "name": "",
          "type": "address"
        }
      ],
      "stateMutability": "view",
      "type": "function"
    },
    {
      "inputs": [
        {
          "internalType": "uint256",
          "name": "tokenId",
          "type": "uint256"
        }
      ],
      "name": "ownerOf",
      "outputs": [
        {
          "internalType": "address",
          "name": "",
          "type": "address"
        }
      ],
      "stateMutability": "view",
      "type": "function"
    },
    {
      "inputs": [
        {
          "internalType": "string",
          "name": "_eventId",
          "type": "string"
        },
        {
          "internalType": "uint256",
          "name": "_totaltokens",
          "type": "uint256"
        }
      ],
      "name": "purchase",
      "outputs": [],
      "stateMutability": "nonpayable",
      "type": "function"
    },
    {
      "inputs": [],
      "name": "renounceOwnership",
      "outputs": [],
      "stateMutability": "nonpayable",
      "type": "function"
    },
    {
      "inputs": [
        {
          "internalType": "address",
          "name": "to",
          "type": "address"
        },
        {
          "internalType": "string",
          "name": "uri",
          "type": "string"
        }
      ],
      "name": "safeMint",
      "outputs": [],
      "stateMutability": "nonpayable",
      "type": "function"
    },
    {
      "inputs": [
        {
          "internalType": "address",
          "name": "from",
          "type": "address"
        },
        {
          "internalType": "address",
          "name": "to",
          "type": "address"
        },
        {
          "internalType": "uint256",
          "name": "tokenId",
          "type": "uint256"
        }
      ],
      "name": "safeTransferFrom",
      "outputs": [],
      "stateMutability": "nonpayable",
      "type": "function"
    },
    {
      "inputs": [
        {
          "internalType": "address",
          "name": "from",
          "type": "address"
        },
        {
          "internalType": "address",
          "name": "to",
          "type": "address"
        },
        {
          "internalType": "uint256",
          "name": "tokenId",
          "type": "uint256"
        },
        {
          "internalType": "bytes",
          "name": "data",
          "type": "bytes"
        }
      ],
      "name": "safeTransferFrom",
      "outputs": [],
      "stateMutability": "nonpayable",
      "type": "function"
    },
    {
      "inputs": [
        {
          "internalType": "address",
          "name": "operator",
          "type": "address"
        },
        {
          "internalType": "bool",
          "name": "approved",
          "type": "bool"
        }
      ],
      "name": "setApprovalForAll",
      "outputs": [],
      "stateMutability": "nonpayable",
      "type": "function"
    },
    {
      "inputs": [
        {
          "internalType": "bytes4",
          "name": "interfaceId",
          "type": "bytes4"
        }
      ],
      "name": "supportsInterface",
      "outputs": [
        {
          "internalType": "bool",
          "name": "",
          "type": "bool"
        }
      ],
      "stateMutability": "view",
      "type": "function"
    },
    {
      "inputs": [],
      "name": "symbol",
      "outputs": [
        {
          "internalType": "string",
          "name": "",
          "type": "string"
        }
      ],
      "stateMutability": "view",
      "type": "function"
    },
    {
      "inputs": [
        {
          "internalType": "uint256",
          "name": "tokenId",
          "type": "uint256"
        }
      ],
      "name": "tokenURI",
      "outputs": [
        {
          "internalType": "string",
          "name": "",
          "type": "string"
        }
      ],
      "stateMutability": "view",
      "type": "function"
    },
    {
      "inputs": [
        {
          "internalType": "uint256",
          "name": "tokenId",
          "type": "uint256"
        }
      ],
      "name": "token_owner",
      "outputs": [
        {
          "internalType": "address",
          "name": "",
          "type": "address"
        }
      ],
      "stateMutability": "view",
      "type": "function"
    },
    {
      "inputs": [
        {
          "internalType": "address",
          "name": "_receiver",
          "type": "address"
        },
        {
          "internalType": "uint256",
          "name": "_totaltokens",
          "type": "uint256"
        }
      ],
      "name": "transfer",
      "outputs": [
        {
          "internalType": "bool",
          "name": "",
          "type": "bool"
        }
      ],
      "stateMutability": "nonpayable",
      "type": "function"
    },
    {
      "inputs": [
        {
          "internalType": "address",
          "name": "from",
          "type": "address"
        },
        {
          "internalType": "address",
          "name": "to",
          "type": "address"
        },
        {
          "internalType": "uint256",
          "name": "tokenId",
          "type": "uint256"
        }
      ],
      "name": "transferFrom",
      "outputs": [],
      "stateMutability": "nonpayable",
      "type": "function"
    },
    {
      "inputs": [
        {
          "internalType": "address",
          "name": "newOwner",
          "type": "address"
        }
      ],
      "name": "transferOwnership",
      "outputs": [],
      "stateMutability": "nonpayable",
      "type": "function"
    }
  ],
  "bytecode": "0x60806040523480156200001157600080fd5b506040518060400160405280600781526020017f4d79546f6b656e000000000000000000000000000000000000000000000000008152506040518060400160405280600381526020017f4d544b0000000000000000000000000000000000000000000000000000000000815250816000908051906020019062000096929190620001a6565b508060019080519060200190620000af929190620001a6565b505050620000d2620000c6620000d860201b60201c565b620000e060201b60201c565b620002bb565b600033905090565b6000600760009054906101000a900473ffffffffffffffffffffffffffffffffffffffff16905081600760006101000a81548173ffffffffffffffffffffffffffffffffffffffff021916908373ffffffffffffffffffffffffffffffffffffffff1602179055508173ffffffffffffffffffffffffffffffffffffffff168173ffffffffffffffffffffffffffffffffffffffff167f8be0079c531659141344cd1fd0a4f28419497f9722a3daafe3b4186f6b6457e060405160405180910390a35050565b828054620001b49062000285565b90600052602060002090601f016020900481019282620001d8576000855562000224565b82601f10620001f357805160ff191683800117855562000224565b8280016001018555821562000224579182015b828111156200022357825182559160200191906001019062000206565b5b50905062000233919062000237565b5090565b5b808211156200025257600081600090555060010162000238565b5090565b7f4e487b7100000000000000000000000000000000000000000000000000000000600052602260045260246000fd5b600060028204905060018216806200029e57607f821691505b60208210811415620002b557620002b462000256565b5b50919050565b61319e80620002cb6000396000f3fe608060405234801561001057600080fd5b506004361061014d5760003560e01c80638da5cb5b116100c3578063c87b56dd1161007c578063c87b56dd1461039a578063cfcd4290146103ca578063d204c45e146103fa578063e3d670d714610416578063e985e9c514610446578063f2fde38b146104765761014d565b80638da5cb5b146102da57806395d89b41146102f8578063a22cb46514610316578063a9059cbb14610332578063aa38e38c14610362578063b88d4fde1461037e5761014d565b8063240bb17b11610115578063240bb17b1461020857806342842e0e146102385780636352211e1461025457806369184afe1461028457806370a08231146102a0578063715018a6146102d05761014d565b806301ffc9a71461015257806306fdde0314610182578063081812fc146101a0578063095ea7b3146101d057806323b872dd146101ec575b600080fd5b61016c60048036038101906101679190611fa6565b610492565b6040516101799190611fee565b60405180910390f35b61018a610574565b60405161019791906120a2565b60405180910390f35b6101ba60048036038101906101b591906120fa565b610606565b6040516101c79190612168565b60405180910390f35b6101ea60048036038101906101e591906121af565b61064c565b005b610206600480360381019061020191906121ef565b610764565b005b610222600480360381019061021d9190612242565b610774565b60405161022f919061227e565b60405180910390f35b610252600480360381019061024d91906121ef565b6107bd565b005b61026e600480360381019061026991906120fa565b6107dd565b60405161027b9190612168565b60405180910390f35b61029e6004803603810190610299919061233e565b61088f565b005b6102ba60048036038101906102b59190612242565b610a63565b6040516102c7919061227e565b60405180910390f35b6102d8610b1b565b005b6102e2610b2f565b6040516102ef9190612168565b60405180910390f35b610300610b59565b60405161030d91906120a2565b60405180910390f35b610330600480360381019061032b91906123ca565b610beb565b005b61034c600480360381019061034791906121af565b610c01565b6040516103599190611fee565b60405180910390f35b61037c6004803603810190610377919061253a565b610d26565b005b61039860048036038101906103939190612637565b610d2a565b005b6103b460048036038101906103af91906120fa565b610d8c565b6040516103c191906120a2565b60405180910390f35b6103e460048036038101906103df91906120fa565b610d9e565b6040516103f19190612168565b60405180910390f35b610414600480360381019061040f91906126ba565b610ddb565b005b610430600480360381019061042b9190612242565b610e50565b60405161043d919061227e565b60405180910390f35b610460600480360381019061045b9190612716565b610e68565b60405161046d9190611fee565b60405180910390f35b610490600480360381019061048b9190612242565b610efc565b005b60007f80ac58cd000000000000000000000000000000000000000000000000000000007bffffffffffffffffffffffffffffffffffffffffffffffffffffffff1916827bffffffffffffffffffffffffffffffffffffffffffffffffffffffff1916148061055d57507f5b5e139f000000000000000000000000000000000000000000000000000000007bffffffffffffffffffffffffffffffffffffffffffffffffffffffff1916827bffffffffffffffffffffffffffffffffffffffffffffffffffffffff1916145b8061056d575061056c82610f80565b5b9050919050565b60606000805461058390612785565b80601f01602080910402602001604051908101604052809291908181526020018280546105af90612785565b80156105fc5780601f106105d1576101008083540402835291602001916105fc565b820191906000526020600020905b8154815290600101906020018083116105df57829003601f168201915b5050505050905090565b600061061182610fea565b6004600083815260200190815260200160002060009054906101000a900473ffffffffffffffffffffffffffffffffffffffff169050919050565b6000610657826107dd565b90508073ffffffffffffffffffffffffffffffffffffffff168373ffffffffffffffffffffffffffffffffffffffff1614156106c8576040517f08c379a00000000000000000000000000000000000000000000000000000000081526004016106bf90612829565b60405180910390fd5b8073ffffffffffffffffffffffffffffffffffffffff166106e7611035565b73ffffffffffffffffffffffffffffffffffffffff161480610716575061071581610710611035565b610e68565b5b610755576040517f08c379a000000000000000000000000000000000000000000000000000000000815260040161074c906128bb565b60405180910390fd5b61075f838361103d565b505050565b61076f8383836110f6565b505050565b6000600a60008373ffffffffffffffffffffffffffffffffffffffff1673ffffffffffffffffffffffffffffffffffffffff168152602001908152602001600020549050919050565b6107d883838360405180602001604052806000815250610d2a565b505050565b6000806002600084815260200190815260200160002060009054906101000a900473ffffffffffffffffffffffffffffffffffffffff169050600073ffffffffffffffffffffffffffffffffffffffff168173ffffffffffffffffffffffffffffffffffffffff161415610886576040517f08c379a000000000000000000000000000000000000000000000000000000000815260040161087d90612927565b60405180910390fd5b80915050919050565b600060405180606001604052803373ffffffffffffffffffffffffffffffffffffffff16815260200185858080601f016020809104026020016040519081016040528093929190818152602001838380828437600081840152601f19601f8201169050808301925050505050505081526020018367ffffffffffffffff16815250905060005b8267ffffffffffffffff1681101561099b578267ffffffffffffffff16811015610988576109873386868080601f016020809104026020016040519081016040528093929190818152602001838380828437600081840152601f19601f82011690508083019250505050505050610ddb565b5b808061099390612976565b915050610915565b50600b81908060018154018082558091505060019003906000526020600020906003020160009091909190915060008201518160000160006101000a81548173ffffffffffffffffffffffffffffffffffffffff021916908373ffffffffffffffffffffffffffffffffffffffff1602179055506020820151816001019080519060200190610a2b929190611e97565b5060408201518160020160006101000a81548167ffffffffffffffff021916908367ffffffffffffffff160217905550505050505050565b60008073ffffffffffffffffffffffffffffffffffffffff168273ffffffffffffffffffffffffffffffffffffffff161415610ad4576040517f08c379a0000000000000000000000000000000000000000000000000000000008152600401610acb90612a31565b60405180910390fd5b600360008373ffffffffffffffffffffffffffffffffffffffff1673ffffffffffffffffffffffffffffffffffffffff168152602001908152602001600020549050919050565b610b236112e7565b610b2d6000611365565b565b6000600760009054906101000a900473ffffffffffffffffffffffffffffffffffffffff16905090565b606060018054610b6890612785565b80601f0160208091040260200160405190810160405280929190818152602001828054610b9490612785565b8015610be15780601f10610bb657610100808354040283529160200191610be1565b820191906000526020600020905b815481529060010190602001808311610bc457829003601f168201915b5050505050905090565b610bfd610bf6611035565b838361142b565b5050565b600081600d60003373ffffffffffffffffffffffffffffffffffffffff1673ffffffffffffffffffffffffffffffffffffffff1681526020019081526020016000206000828254610c529190612a51565b9250508190555081600d60008573ffffffffffffffffffffffffffffffffffffffff1673ffffffffffffffffffffffffffffffffffffffff1681526020019081526020016000206000828254610ca89190612a85565b9250508190555081600c60003373ffffffffffffffffffffffffffffffffffffffff1673ffffffffffffffffffffffffffffffffffffffff16815260200190815260200160002060020160009054906101000a900467ffffffffffffffff1667ffffffffffffffff16610d1b9190612a51565b506001905092915050565b5050565b610d3b610d35611035565b83611598565b610d7a576040517f08c379a0000000000000000000000000000000000000000000000000000000008152600401610d7190612b4d565b60405180910390fd5b610d868484848461162d565b50505050565b6060610d9782611689565b9050919050565b60006009600083815260200190815260200160002060009054906101000a900473ffffffffffffffffffffffffffffffffffffffff169050919050565b6000610de7600861179c565b905080600a60008573ffffffffffffffffffffffffffffffffffffffff1673ffffffffffffffffffffffffffffffffffffffff16815260200190815260200160002081905550610e3760086117aa565b610e4183826117c0565b610e4b81836117de565b505050565b600d6020528060005260406000206000915090505481565b6000600560008473ffffffffffffffffffffffffffffffffffffffff1673ffffffffffffffffffffffffffffffffffffffff16815260200190815260200160002060008373ffffffffffffffffffffffffffffffffffffffff1673ffffffffffffffffffffffffffffffffffffffff16815260200190815260200160002060009054906101000a900460ff16905092915050565b610f046112e7565b600073ffffffffffffffffffffffffffffffffffffffff168173ffffffffffffffffffffffffffffffffffffffff161415610f74576040517f08c379a0000000000000000000000000000000000000000000000000000000008152600401610f6b90612bdf565b60405180910390fd5b610f7d81611365565b50565b60007f01ffc9a7000000000000000000000000000000000000000000000000000000007bffffffffffffffffffffffffffffffffffffffffffffffffffffffff1916827bffffffffffffffffffffffffffffffffffffffffffffffffffffffff1916149050919050565b610ff381611852565b611032576040517f08c379a000000000000000000000000000000000000000000000000000000000815260040161102990612927565b60405180910390fd5b50565b600033905090565b816004600083815260200190815260200160002060006101000a81548173ffffffffffffffffffffffffffffffffffffffff021916908373ffffffffffffffffffffffffffffffffffffffff160217905550808273ffffffffffffffffffffffffffffffffffffffff166110b0836107dd565b73ffffffffffffffffffffffffffffffffffffffff167f8c5be1e5ebec7d5bd14f71427d1e84f3dd0314c0f7b2291e5b200ac8c7c3b92560405160405180910390a45050565b600073ffffffffffffffffffffffffffffffffffffffff168273ffffffffffffffffffffffffffffffffffffffff161415611166576040517f08c379a000000000000000000000000000000000000000000000000000000000815260040161115d90612c71565b60405180910390fd5b6111718383836118be565b61117c60008261103d565b6001600a60008573ffffffffffffffffffffffffffffffffffffffff1673ffffffffffffffffffffffffffffffffffffffff16815260200190815260200160002060008282546111cc9190612a51565b925050819055506001600a60008473ffffffffffffffffffffffffffffffffffffffff1673ffffffffffffffffffffffffffffffffffffffff16815260200190815260200160002060008282546112239190612a85565b92505081905550816009600083815260200190815260200160002060006101000a81548173ffffffffffffffffffffffffffffffffffffffff021916908373ffffffffffffffffffffffffffffffffffffffff160217905550808273ffffffffffffffffffffffffffffffffffffffff168473ffffffffffffffffffffffffffffffffffffffff167fddf252ad1be2c89b69c2b068fc378daa952ba7f163c4a11628f55a4df523b3ef60405160405180910390a46112e28383836118c3565b505050565b6112ef611035565b73ffffffffffffffffffffffffffffffffffffffff1661130d610b2f565b73ffffffffffffffffffffffffffffffffffffffff1614611363576040517f08c379a000000000000000000000000000000000000000000000000000000000815260040161135a90612cdd565b60405180910390fd5b565b6000600760009054906101000a900473ffffffffffffffffffffffffffffffffffffffff16905081600760006101000a81548173ffffffffffffffffffffffffffffffffffffffff021916908373ffffffffffffffffffffffffffffffffffffffff1602179055508173ffffffffffffffffffffffffffffffffffffffff168173ffffffffffffffffffffffffffffffffffffffff167f8be0079c531659141344cd1fd0a4f28419497f9722a3daafe3b4186f6b6457e060405160405180910390a35050565b8173ffffffffffffffffffffffffffffffffffffffff168373ffffffffffffffffffffffffffffffffffffffff16141561149a576040517f08c379a000000000000000000000000000000000000000000000000000000000815260040161149190612d49565b60405180910390fd5b80600560008573ffffffffffffffffffffffffffffffffffffffff1673ffffffffffffffffffffffffffffffffffffffff16815260200190815260200160002060008473ffffffffffffffffffffffffffffffffffffffff1673ffffffffffffffffffffffffffffffffffffffff16815260200190815260200160002060006101000a81548160ff0219169083151502179055508173ffffffffffffffffffffffffffffffffffffffff168373ffffffffffffffffffffffffffffffffffffffff167f17307eab39ab6107e8899845ad3d59bd9653f200f220920489ca2b5937696c318360405161158b9190611fee565b60405180910390a3505050565b6000806115a4836107dd565b90508073ffffffffffffffffffffffffffffffffffffffff168473ffffffffffffffffffffffffffffffffffffffff1614806115e657506115e58185610e68565b5b8061162457508373ffffffffffffffffffffffffffffffffffffffff1661160c84610606565b73ffffffffffffffffffffffffffffffffffffffff16145b91505092915050565b6116388484846110f6565b611644848484846118c8565b611683576040517f08c379a000000000000000000000000000000000000000000000000000000000815260040161167a90612ddb565b60405180910390fd5b50505050565b606061169482610fea565b60006006600084815260200190815260200160002080546116b490612785565b80601f01602080910402602001604051908101604052809291908181526020018280546116e090612785565b801561172d5780601f106117025761010080835404028352916020019161172d565b820191906000526020600020905b81548152906001019060200180831161171057829003601f168201915b50505050509050600061173e611a5f565b9050600081511415611754578192505050611797565b600082511115611789578082604051602001611771929190612e37565b60405160208183030381529060405292505050611797565b61179284611a76565b925050505b919050565b600081600001549050919050565b6001816000016000828254019250508190555050565b6117da828260405180602001604052806000815250611ade565b5050565b6117e782611852565b611826576040517f08c379a000000000000000000000000000000000000000000000000000000000815260040161181d90612ecd565b60405180910390fd5b8060066000848152602001908152602001600020908051906020019061184d929190611e97565b505050565b60008073ffffffffffffffffffffffffffffffffffffffff166002600084815260200190815260200160002060009054906101000a900473ffffffffffffffffffffffffffffffffffffffff1673ffffffffffffffffffffffffffffffffffffffff1614159050919050565b505050565b505050565b60006118e98473ffffffffffffffffffffffffffffffffffffffff16611b39565b15611a52578373ffffffffffffffffffffffffffffffffffffffff1663150b7a02611912611035565b8786866040518563ffffffff1660e01b81526004016119349493929190612f42565b602060405180830381600087803b15801561194e57600080fd5b505af192505050801561197f57506040513d601f19601f8201168201806040525081019061197c9190612fa3565b60015b611a02573d80600081146119af576040519150601f19603f3d011682016040523d82523d6000602084013e6119b4565b606091505b506000815114156119fa576040517f08c379a00000000000000000000000000000000000000000000000000000000081526004016119f190612ddb565b60405180910390fd5b805181602001fd5b63150b7a0260e01b7bffffffffffffffffffffffffffffffffffffffffffffffffffffffff1916817bffffffffffffffffffffffffffffffffffffffffffffffffffffffff191614915050611a57565b600190505b949350505050565b606060405180602001604052806000815250905090565b6060611a8182610fea565b6000611a8b611a5f565b90506000815111611aab5760405180602001604052806000815250611ad6565b80611ab584611b5c565b604051602001611ac6929190612e37565b6040516020818303038152906040525b915050919050565b611ae88383611cbd565b611af560008484846118c8565b611b34576040517f08c379a0000000000000000000000000000000000000000000000000000000008152600401611b2b90612ddb565b60405180910390fd5b505050565b6000808273ffffffffffffffffffffffffffffffffffffffff163b119050919050565b60606000821415611ba4576040518060400160405280600181526020017f30000000000000000000000000000000000000000000000000000000000000008152509050611cb8565b600082905060005b60008214611bd6578080611bbf90612976565b915050600a82611bcf9190612fff565b9150611bac565b60008167ffffffffffffffff811115611bf257611bf161240f565b5b6040519080825280601f01601f191660200182016040528015611c245781602001600182028036833780820191505090505b5090505b60008514611cb157600182611c3d9190612a51565b9150600a85611c4c9190613030565b6030611c589190612a85565b60f81b818381518110611c6e57611c6d613061565b5b60200101907effffffffffffffffffffffffffffffffffffffffffffffffffffffffffffff1916908160001a905350600a85611caa9190612fff565b9450611c28565b8093505050505b919050565b600073ffffffffffffffffffffffffffffffffffffffff168273ffffffffffffffffffffffffffffffffffffffff161415611d2d576040517f08c379a0000000000000000000000000000000000000000000000000000000008152600401611d24906130dc565b60405180910390fd5b611d3681611852565b15611d76576040517f08c379a0000000000000000000000000000000000000000000000000000000008152600401611d6d90613148565b60405180910390fd5b611d82600083836118be565b6001600360008473ffffffffffffffffffffffffffffffffffffffff1673ffffffffffffffffffffffffffffffffffffffff1681526020019081526020016000206000828254611dd29190612a85565b92505081905550816002600083815260200190815260200160002060006101000a81548173ffffffffffffffffffffffffffffffffffffffff021916908373ffffffffffffffffffffffffffffffffffffffff160217905550808273ffffffffffffffffffffffffffffffffffffffff16600073ffffffffffffffffffffffffffffffffffffffff167fddf252ad1be2c89b69c2b068fc378daa952ba7f163c4a11628f55a4df523b3ef60405160405180910390a4611e93600083836118c3565b5050565b828054611ea390612785565b90600052602060002090601f016020900481019282611ec55760008555611f0c565b82601f10611ede57805160ff1916838001178555611f0c565b82800160010185558215611f0c579182015b82811115611f0b578251825591602001919060010190611ef0565b5b509050611f199190611f1d565b5090565b5b80821115611f36576000816000905550600101611f1e565b5090565b6000604051905090565b600080fd5b600080fd5b60007fffffffff0000000000000000000000000000000000000000000000000000000082169050919050565b611f8381611f4e565b8114611f8e57600080fd5b50565b600081359050611fa081611f7a565b92915050565b600060208284031215611fbc57611fbb611f44565b5b6000611fca84828501611f91565b91505092915050565b60008115159050919050565b611fe881611fd3565b82525050565b60006020820190506120036000830184611fdf565b92915050565b600081519050919050565b600082825260208201905092915050565b60005b83811015612043578082015181840152602081019050612028565b83811115612052576000848401525b50505050565b6000601f19601f8301169050919050565b600061207482612009565b61207e8185612014565b935061208e818560208601612025565b61209781612058565b840191505092915050565b600060208201905081810360008301526120bc8184612069565b905092915050565b6000819050919050565b6120d7816120c4565b81146120e257600080fd5b50565b6000813590506120f4816120ce565b92915050565b6000602082840312156121105761210f611f44565b5b600061211e848285016120e5565b91505092915050565b600073ffffffffffffffffffffffffffffffffffffffff82169050919050565b600061215282612127565b9050919050565b61216281612147565b82525050565b600060208201905061217d6000830184612159565b92915050565b61218c81612147565b811461219757600080fd5b50565b6000813590506121a981612183565b92915050565b600080604083850312156121c6576121c5611f44565b5b60006121d48582860161219a565b92505060206121e5858286016120e5565b9150509250929050565b60008060006060848603121561220857612207611f44565b5b60006122168682870161219a565b93505060206122278682870161219a565b9250506040612238868287016120e5565b9150509250925092565b60006020828403121561225857612257611f44565b5b60006122668482850161219a565b91505092915050565b612278816120c4565b82525050565b6000602082019050612293600083018461226f565b92915050565b600080fd5b600080fd5b600080fd5b60008083601f8401126122be576122bd612299565b5b8235905067ffffffffffffffff8111156122db576122da61229e565b5b6020830191508360018202830111156122f7576122f66122a3565b5b9250929050565b600067ffffffffffffffff82169050919050565b61231b816122fe565b811461232657600080fd5b50565b60008135905061233881612312565b92915050565b60008060006040848603121561235757612356611f44565b5b600084013567ffffffffffffffff81111561237557612374611f49565b5b612381868287016122a8565b9350935050602061239486828701612329565b9150509250925092565b6123a781611fd3565b81146123b257600080fd5b50565b6000813590506123c48161239e565b92915050565b600080604083850312156123e1576123e0611f44565b5b60006123ef8582860161219a565b9250506020612400858286016123b5565b9150509250929050565b600080fd5b7f4e487b7100000000000000000000000000000000000000000000000000000000600052604160045260246000fd5b61244782612058565b810181811067ffffffffffffffff821117156124665761246561240f565b5b80604052505050565b6000612479611f3a565b9050612485828261243e565b919050565b600067ffffffffffffffff8211156124a5576124a461240f565b5b6124ae82612058565b9050602081019050919050565b82818337600083830152505050565b60006124dd6124d88461248a565b61246f565b9050828152602081018484840111156124f9576124f861240a565b5b6125048482856124bb565b509392505050565b600082601f83011261252157612520612299565b5b81356125318482602086016124ca565b91505092915050565b6000806040838503121561255157612550611f44565b5b600083013567ffffffffffffffff81111561256f5761256e611f49565b5b61257b8582860161250c565b925050602061258c858286016120e5565b9150509250929050565b600067ffffffffffffffff8211156125b1576125b061240f565b5b6125ba82612058565b9050602081019050919050565b60006125da6125d584612596565b61246f565b9050828152602081018484840111156125f6576125f561240a565b5b6126018482856124bb565b509392505050565b600082601f83011261261e5761261d612299565b5b813561262e8482602086016125c7565b91505092915050565b6000806000806080858703121561265157612650611f44565b5b600061265f8782880161219a565b94505060206126708782880161219a565b9350506040612681878288016120e5565b925050606085013567ffffffffffffffff8111156126a2576126a1611f49565b5b6126ae87828801612609565b91505092959194509250565b600080604083850312156126d1576126d0611f44565b5b60006126df8582860161219a565b925050602083013567ffffffffffffffff811115612700576126ff611f49565b5b61270c8582860161250c565b9150509250929050565b6000806040838503121561272d5761272c611f44565b5b600061273b8582860161219a565b925050602061274c8582860161219a565b9150509250929050565b7f4e487b7100000000000000000000000000000000000000000000000000000000600052602260045260246000fd5b6000600282049050600182168061279d57607f821691505b602082108114156127b1576127b0612756565b5b50919050565b7f4552433732313a20617070726f76616c20746f2063757272656e74206f776e6560008201527f7200000000000000000000000000000000000000000000000000000000000000602082015250565b6000612813602183612014565b915061281e826127b7565b604082019050919050565b6000602082019050818103600083015261284281612806565b9050919050565b7f4552433732313a20617070726f76652063616c6c6572206973206e6f7420746f60008201527f6b656e206f776e6572206e6f7220617070726f76656420666f7220616c6c0000602082015250565b60006128a5603e83612014565b91506128b082612849565b604082019050919050565b600060208201905081810360008301526128d481612898565b9050919050565b7f4552433732313a20696e76616c696420746f6b656e2049440000000000000000600082015250565b6000612911601883612014565b915061291c826128db565b602082019050919050565b6000602082019050818103600083015261294081612904565b9050919050565b7f4e487b7100000000000000000000000000000000000000000000000000000000600052601160045260246000fd5b6000612981826120c4565b91507fffffffffffffffffffffffffffffffffffffffffffffffffffffffffffffffff8214156129b4576129b3612947565b5b600182019050919050565b7f4552433732313a2061646472657373207a65726f206973206e6f74206120766160008201527f6c6964206f776e65720000000000000000000000000000000000000000000000602082015250565b6000612a1b602983612014565b9150612a26826129bf565b604082019050919050565b60006020820190508181036000830152612a4a81612a0e565b9050919050565b6000612a5c826120c4565b9150612a67836120c4565b925082821015612a7a57612a79612947565b5b828203905092915050565b6000612a90826120c4565b9150612a9b836120c4565b9250827fffffffffffffffffffffffffffffffffffffffffffffffffffffffffffffffff03821115612ad057612acf612947565b5b828201905092915050565b7f4552433732313a2063616c6c6572206973206e6f7420746f6b656e206f776e6560008201527f72206e6f7220617070726f766564000000000000000000000000000000000000602082015250565b6000612b37602e83612014565b9150612b4282612adb565b604082019050919050565b60006020820190508181036000830152612b6681612b2a565b9050919050565b7f4f776e61626c653a206e6577206f776e657220697320746865207a65726f206160008201527f6464726573730000000000000000000000000000000000000000000000000000602082015250565b6000612bc9602683612014565b9150612bd482612b6d565b604082019050919050565b60006020820190508181036000830152612bf881612bbc565b9050919050565b7f4552433732313a207472616e7366657220746f20746865207a65726f2061646460008201527f7265737300000000000000000000000000000000000000000000000000000000602082015250565b6000612c5b602483612014565b9150612c6682612bff565b604082019050919050565b60006020820190508181036000830152612c8a81612c4e565b9050919050565b7f4f776e61626c653a2063616c6c6572206973206e6f7420746865206f776e6572600082015250565b6000612cc7602083612014565b9150612cd282612c91565b602082019050919050565b60006020820190508181036000830152612cf681612cba565b9050919050565b7f4552433732313a20617070726f766520746f2063616c6c657200000000000000600082015250565b6000612d33601983612014565b9150612d3e82612cfd565b602082019050919050565b60006020820190508181036000830152612d6281612d26565b9050919050565b7f4552433732313a207472616e7366657220746f206e6f6e20455243373231526560008201527f63656976657220696d706c656d656e7465720000000000000000000000000000602082015250565b6000612dc5603283612014565b9150612dd082612d69565b604082019050919050565b60006020820190508181036000830152612df481612db8565b9050919050565b600081905092915050565b6000612e1182612009565b612e1b8185612dfb565b9350612e2b818560208601612025565b80840191505092915050565b6000612e438285612e06565b9150612e4f8284612e06565b91508190509392505050565b7f45524337323155524953746f726167653a2055524920736574206f66206e6f6e60008201527f6578697374656e7420746f6b656e000000000000000000000000000000000000602082015250565b6000612eb7602e83612014565b9150612ec282612e5b565b604082019050919050565b60006020820190508181036000830152612ee681612eaa565b9050919050565b600081519050919050565b600082825260208201905092915050565b6000612f1482612eed565b612f1e8185612ef8565b9350612f2e818560208601612025565b612f3781612058565b840191505092915050565b6000608082019050612f576000830187612159565b612f646020830186612159565b612f71604083018561226f565b8181036060830152612f838184612f09565b905095945050505050565b600081519050612f9d81611f7a565b92915050565b600060208284031215612fb957612fb8611f44565b5b6000612fc784828501612f8e565b91505092915050565b7f4e487b7100000000000000000000000000000000000000000000000000000000600052601260045260246000fd5b600061300a826120c4565b9150613015836120c4565b92508261302557613024612fd0565b5b828204905092915050565b600061303b826120c4565b9150613046836120c4565b92508261305657613055612fd0565b5b828206905092915050565b7f4e487b7100000000000000000000000000000000000000000000000000000000600052603260045260246000fd5b7f4552433732313a206d696e7420746f20746865207a65726f2061646472657373600082015250565b60006130c6602083612014565b91506130d182613090565b602082019050919050565b600060208201905081810360008301526130f5816130b9565b9050919050565b7f4552433732313a20746f6b656e20616c7265616479206d696e74656400000000600082015250565b6000613132601c83612014565b915061313d826130fc565b602082019050919050565b6000602082019050818103600083015261316181613125565b905091905056fea264697066735822122078b83780b4b2653631b5d3832961ce58e128bef393fc5e3792509bb068f28bcf64736f6c63430008090033",
  "linkReferences": {},
  "deployedLinkReferences": {}
}