{
  "_format": "hh-sol-artifact-1",
  "contractName": "Ticketing",
  "sourceName": "contracts/Ticketing Contract/Ticketing.sol",
  "abi": [
    {
      "inputs": [
        {
          "internalType": "address",
          "name": "_account",
          "type": "address"
        }
      ],
      "stateMutability": "nonpayable",
      "type": "constructor"
    },
    {
      "anonymous": false,
      "inputs": [
        {
          "indexed": true,
          "internalType": "address",
          "name": "creator",
          "type": "address"
        },
        {
          "indexed": false,
          "internalType": "string",
          "name": "eventName",
          "type": "string"
        }
      ],
      "name": "event_created",
      "type": "event"
    },
    {
      "anonymous": false,
      "inputs": [
        {
          "indexed": true,
          "internalType": "address",
          "name": "creator",
          "type": "address"
        },
        {
          "indexed": false,
          "internalType": "string",
          "name": "eventName",
          "type": "string"
        }
      ],
      "name": "event_deleted",
      "type": "event"
    },
    {
      "anonymous": false,
      "inputs": [
        {
          "indexed": true,
          "internalType": "address",
          "name": "creator",
          "type": "address"
        },
        {
          "indexed": false,
          "internalType": "string",
          "name": "eventName",
          "type": "string"
        },
        {
          "indexed": false,
          "internalType": "uint256",
          "name": "timestamp",
          "type": "uint256"
        }
      ],
      "name": "fund_withdrawn",
      "type": "event"
    },
    {
      "anonymous": false,
      "inputs": [
        {
          "indexed": true,
          "internalType": "address",
          "name": "creator",
          "type": "address"
        },
        {
          "indexed": false,
          "internalType": "string",
          "name": "EventName",
          "type": "string"
        },
        {
          "indexed": false,
          "internalType": "uint256",
          "name": "timestamp",
          "type": "uint256"
        }
      ],
      "name": "ticketPriceChange",
      "type": "event"
    },
    {
      "anonymous": false,
      "inputs": [
        {
          "indexed": true,
          "internalType": "address",
          "name": "buyer",
          "type": "address"
        },
        {
          "indexed": false,
          "internalType": "string",
          "name": "eventName",
          "type": "string"
        }
      ],
      "name": "ticket_bought",
      "type": "event"
    },
    {
      "inputs": [
        {
          "internalType": "string",
          "name": "event_id",
          "type": "string"
        },
        {
          "internalType": "uint64[]",
          "name": "additional_tickets",
          "type": "uint64[]"
        }
      ],
      "name": "add_tickets",
      "outputs": [],
      "stateMutability": "nonpayable",
      "type": "function"
    },
    {
      "inputs": [
        {
          "internalType": "string",
          "name": "event_id",
          "type": "string"
        }
      ],
      "name": "availableTickets",
      "outputs": [
        {
          "internalType": "uint64[]",
          "name": "",
          "type": "uint64[]"
        }
      ],
      "stateMutability": "view",
      "type": "function"
    },
    {
      "inputs": [
        {
          "internalType": "string",
          "name": "event_id",
          "type": "string"
        },
        {
          "internalType": "uint64",
          "name": "ticket_type",
          "type": "uint64"
        },
        {
          "internalType": "uint64",
          "name": "requested_num_tickets",
          "type": "uint64"
        }
      ],
      "name": "buy_tickets",
      "outputs": [],
      "stateMutability": "payable",
      "type": "function"
    },
    {
      "inputs": [
        {
          "internalType": "string",
          "name": "event_id",
          "type": "string"
        },
        {
          "internalType": "uint64",
          "name": "ticket_type",
          "type": "uint64"
        },
        {
          "internalType": "uint128",
          "name": "new_price",
          "type": "uint128"
        }
      ],
      "name": "change_ticket_price",
      "outputs": [],
      "stateMutability": "nonpayable",
      "type": "function"
    },
    {
      "inputs": [
        {
          "internalType": "string",
          "name": "_event_id",
          "type": "string"
        },
        {
          "internalType": "uint64[]",
          "name": "num_tickets",
          "type": "uint64[]"
        },
        {
          "internalType": "uint128[]",
          "name": "_ticket_prices",
          "type": "uint128[]"
        },
        {
          "internalType": "bool",
          "name": "_per_customer_limit",
          "type": "bool"
        },
        {
          "internalType": "uint64",
          "name": "_max_per_customer",
          "type": "uint64"
        },
        {
          "internalType": "uint256",
          "name": "_deadline",
          "type": "uint256"
        }
      ],
      "name": "createEvent",
      "outputs": [],
      "stateMutability": "nonpayable",
      "type": "function"
    },
    {
      "inputs": [
        {
          "internalType": "string",
          "name": "event_id",
          "type": "string"
        }
      ],
      "name": "delete_event",
      "outputs": [],
      "stateMutability": "nonpayable",
      "type": "function"
    },
    {
      "inputs": [
        {
          "internalType": "uint256",
          "name": "",
          "type": "uint256"
        }
      ],
      "name": "event_id_list",
      "outputs": [
        {
          "internalType": "string",
          "name": "",
          "type": "string"
        }
      ],
      "stateMutability": "view",
      "type": "function"
    },
    {
      "inputs": [
        {
          "internalType": "string",
          "name": "",
          "type": "string"
        }
      ],
      "name": "events",
      "outputs": [
        {
          "internalType": "address payable",
          "name": "owner",
          "type": "address"
        },
        {
          "internalType": "string",
          "name": "event_Id",
          "type": "string"
        },
        {
          "internalType": "uint256",
          "name": "deadline",
          "type": "uint256"
        },
        {
          "internalType": "uint256",
          "name": "funds",
          "type": "uint256"
        },
        {
          "internalType": "uint256",
          "name": "index",
          "type": "uint256"
        },
        {
          "internalType": "bool",
          "name": "sale_active",
          "type": "bool"
        },
        {
          "internalType": "bool",
          "name": "exists",
          "type": "bool"
        },
        {
          "internalType": "bool",
          "name": "per_customer_limit",
          "type": "bool"
        },
        {
          "internalType": "uint64",
          "name": "max_per_customer",
          "type": "uint64"
        }
      ],
      "stateMutability": "view",
      "type": "function"
    },
    {
      "inputs": [
        {
          "internalType": "uint256",
          "name": "",
          "type": "uint256"
        }
      ],
      "name": "genEvents",
      "outputs": [
        {
          "internalType": "address payable",
          "name": "owner",
          "type": "address"
        },
        {
          "internalType": "string",
          "name": "event_Id",
          "type": "string"
        },
        {
          "internalType": "uint256",
          "name": "deadline",
          "type": "uint256"
        },
        {
          "internalType": "uint256",
          "name": "funds",
          "type": "uint256"
        },
        {
          "internalType": "uint256",
          "name": "index",
          "type": "uint256"
        },
        {
          "internalType": "bool",
          "name": "sale_active",
          "type": "bool"
        },
        {
          "internalType": "bool",
          "name": "exists",
          "type": "bool"
        },
        {
          "internalType": "bool",
          "name": "per_customer_limit",
          "type": "bool"
        },
        {
          "internalType": "uint64",
          "name": "max_per_customer",
          "type": "uint64"
        }
      ],
      "stateMutability": "view",
      "type": "function"
    },
    {
      "inputs": [
        {
          "internalType": "string",
          "name": "event_id",
          "type": "string"
        }
      ],
      "name": "getGenTickedId",
      "outputs": [
        {
          "internalType": "bytes32",
          "name": "",
          "type": "bytes32"
        }
      ],
      "stateMutability": "view",
      "type": "function"
    },
    {
      "inputs": [
        {
          "internalType": "string",
          "name": "event_id",
          "type": "string"
        }
      ],
      "name": "get_customers",
      "outputs": [
        {
          "internalType": "address[]",
          "name": "",
          "type": "address[]"
        }
      ],
      "stateMutability": "view",
      "type": "function"
    },
    {
      "inputs": [
        {
          "internalType": "string",
          "name": "event_id",
          "type": "string"
        },
        {
          "internalType": "address",
          "name": "customer",
          "type": "address"
        }
      ],
      "name": "get_tickets",
      "outputs": [
        {
          "internalType": "uint64[]",
          "name": "",
          "type": "uint64[]"
        }
      ],
      "stateMutability": "view",
      "type": "function"
    },
    {
      "inputs": [],
      "name": "max_ticket_types",
      "outputs": [
        {
          "internalType": "uint8",
          "name": "",
          "type": "uint8"
        }
      ],
      "stateMutability": "view",
      "type": "function"
    },
    {
      "inputs": [
        {
          "internalType": "string",
          "name": "event_id",
          "type": "string"
        }
      ],
      "name": "return_tickets",
      "outputs": [],
      "stateMutability": "nonpayable",
      "type": "function"
    },
    {
      "inputs": [
        {
          "internalType": "string",
          "name": "event_id",
          "type": "string"
        }
      ],
      "name": "view_funds",
      "outputs": [
        {
          "internalType": "uint256",
          "name": "current_funds",
          "type": "uint256"
        }
      ],
      "stateMutability": "view",
      "type": "function"
    },
    {
      "inputs": [
        {
          "internalType": "string",
          "name": "event_id",
          "type": "string"
        }
      ],
      "name": "withdraw_funds",
      "outputs": [],
      "stateMutability": "nonpayable",
      "type": "function"
    }
  ],
  "bytecode": "0x60806040523480156200001157600080fd5b506040516200521b3803806200521b8339818101604052810190620000379190620000e8565b806000806101000a81548173ffffffffffffffffffffffffffffffffffffffff021916908373ffffffffffffffffffffffffffffffffffffffff160217905550506200011a565b600080fd5b600073ffffffffffffffffffffffffffffffffffffffff82169050919050565b6000620000b08262000083565b9050919050565b620000c281620000a3565b8114620000ce57600080fd5b50565b600081519050620000e281620000b7565b92915050565b6000602082840312156200010157620001006200007e565b5b60006200011184828501620000d1565b91505092915050565b6150f1806200012a6000396000f3fe6080604052600436106100f35760003560e01c80639673d6a31161008a578063c0a4ff7711610059578063c0a4ff771461035f578063c29d81461461038a578063ed22acda146103b3578063f6100719146103f0576100f3565b80639673d6a31461028b578063a0d596c0146102d0578063a78934a4146102f9578063b42b747e14610322576100f3565b806352359ab5116100c657806352359ab5146101cc5780635512d7dd146102095780638928df8814610232578063926766fc1461024e576100f3565b8063144f7bde146100f8578063152beddb1461013557806323f7bd771461017a5780633c3bf9da146101a3575b600080fd5b34801561010457600080fd5b5061011f600480360381019061011a9190613662565b61042d565b60405161012c919061377d565b60405180910390f35b34801561014157600080fd5b5061015c600480360381019061015791906137d5565b6104da565b60405161017199989796959493929190613904565b60405180910390f35b34801561018657600080fd5b506101a1600480360381019061019c9190613afc565b61061b565b005b3480156101af57600080fd5b506101ca60048036038101906101c59190613662565b610a50565b005b3480156101d857600080fd5b506101f360048036038101906101ee9190613beb565b610da9565b6040516102009190613d08565b60405180910390f35b34801561021557600080fd5b50610230600480360381019061022b9190613662565b610e5b565b005b61024c60048036038101906102479190613d2a565b6114cf565b005b34801561025a57600080fd5b5061027560048036038101906102709190613beb565b6121da565b6040516102829190613d99565b60405180910390f35b34801561029757600080fd5b506102b260048036038101906102ad9190613662565b6123b1565b6040516102c799989796959493929190613904565b60405180910390f35b3480156102dc57600080fd5b506102f760048036038101906102f29190613662565b6124f8565b005b34801561030557600080fd5b50610320600480360381019061031b9190613db4565b6127bd565b005b34801561032e57600080fd5b5061034960048036038101906103449190613e5c565b612bc4565b604051610356919061377d565b60405180910390f35b34801561036b57600080fd5b50610374612d22565b6040516103819190613ed4565b60405180910390f35b34801561039657600080fd5b506103b160048036038101906103ac9190613f37565b612d27565b005b3480156103bf57600080fd5b506103da60048036038101906103d59190613beb565b612f46565b6040516103e79190613fbf565b60405180910390f35b3480156103fc57600080fd5b50610417600480360381019061041291906137d5565b612fb4565b6040516104249190613fda565b60405180910390f35b606060028260405161043f9190614038565b90815260200160405180910390206004018054806020026020016040519081016040528092919081815260200182805480156104ce57602002820191906000526020600020906000905b82829054906101000a900467ffffffffffffffff1667ffffffffffffffff16815260200190600801906020826007010492830192600103820291508084116104895790505b50505050509050919050565b600181815481106104ea57600080fd5b90600052602060002090600b02016000915090508060000160009054906101000a900473ffffffffffffffffffffffffffffffffffffffff16908060010180546105339061407e565b80601f016020809104026020016040519081016040528092919081815260200182805461055f9061407e565b80156105ac5780601f10610581576101008083540402835291602001916105ac565b820191906000526020600020905b81548152906001019060200180831161058f57829003601f168201915b5050505050908060050154908060060154908060070154908060080160009054906101000a900460ff16908060080160019054906101000a900460ff16908060080160029054906101000a900460ff16908060080160039054906101000a900467ffffffffffffffff16905089565b6002898960405161062d9291906140d5565b908152602001604051809103902060080160019054906101000a900460ff161561068c576040517f08c379a000000000000000000000000000000000000000000000000000000000815260040161068390614160565b60405180910390fd5b8484905087879050146106d4576040517f08c379a00000000000000000000000000000000000000000000000000000000081526004016106cb90614218565b60405180910390fd5b6000878790501161071a576040517f08c379a0000000000000000000000000000000000000000000000000000000008152600401610711906142aa565b60405180910390fd5b606460ff16878790501115610764576040517f08c379a000000000000000000000000000000000000000000000000000000000815260040161075b9061433c565b60405180910390fd5b4281116107a6576040517f08c379a000000000000000000000000000000000000000000000000000000000815260040161079d906143a8565b60405180910390fd5b600160028a8a6040516107ba9291906140d5565b908152602001604051809103902060080160016101000a81548160ff021916908315150217905550888860028b8b6040516107f69291906140d5565b9081526020016040518091039020600101919061081492919061309e565b50868660028b8b6040516108299291906140d5565b90815260200160405180910390206004019190610847929190613124565b50848460028b8b60405161085c9291906140d5565b9081526020016040518091039020600201919061087a9291906131ea565b508160028a8a60405161088e9291906140d5565b908152602001604051809103902060080160036101000a81548167ffffffffffffffff021916908367ffffffffffffffff1602179055508260028a8a6040516108d89291906140d5565b908152602001604051809103902060080160026101000a81548160ff0219169083151502179055503360028a8a6040516109139291906140d5565b908152602001604051809103902060000160006101000a81548173ffffffffffffffffffffffffffffffffffffffff021916908373ffffffffffffffffffffffffffffffffffffffff1602179055508060028a8a6040516109759291906140d5565b90815260200160405180910390206005018190555060038054905060028a8a6040516109a29291906140d5565b90815260200160405180910390206007018190555060038989909180600181540180825580915050600190039060005260206000200160009091929091929091929091925091906109f492919061309e565b503373ffffffffffffffffffffffffffffffffffffffff167fb2e9851b3527256f8bfedacf65268434ed500df0baf519807424645da4462f528a8a604051610a3d9291906143f5565b60405180910390a2505050505050505050565b80600281604051610a619190614038565b908152602001604051809103902060080160019054906101000a900460ff16610abf576040517f08c379a0000000000000000000000000000000000000000000000000000000008152600401610ab690614465565b60405180910390fd5b813373ffffffffffffffffffffffffffffffffffffffff16600282604051610ae79190614038565b908152602001604051809103902060000160009054906101000a900473ffffffffffffffffffffffffffffffffffffffff1673ffffffffffffffffffffffffffffffffffffffff1614610b6f576040517f08c379a0000000000000000000000000000000000000000000000000000000008152600401610b66906144f7565b60405180910390fd5b6000600284604051610b819190614038565b9081526020016040518091039020600701549050600284604051610ba59190614038565b9081526020016040518091039020600080820160006101000a81549073ffffffffffffffffffffffffffffffffffffffff0219169055600182016000610beb91906132d0565b600282016000610bfb9190613310565b600382016000610c0b9190613338565b600482016000610c1b9190613359565b6005820160009055600682016000905560078201600090556008820160006101000a81549060ff02191690556008820160016101000a81549060ff02191690556008820160026101000a81549060ff02191690556008820160036101000a81549067ffffffffffffffff0219169055600a82016000610c9a9190613381565b505080600260036001600380549050610cb39190614546565b81548110610cc457610cc361457a565b5b90600052602060002001604051610cdb919061463d565b90815260200160405180910390206007018190555060036001600380549050610d049190614546565b81548110610d1557610d1461457a565b5b9060005260206000200160038281548110610d3357610d3261457a565b5b90600052602060002001908054610d499061407e565b610d549291906133a2565b5060036001600380549050610d699190614546565b81548110610d7a57610d7961457a565b5b906000526020600020016000610d9091906132d0565b6001600380549050610da29190614546565b5050505050565b606060028383604051610dbd9291906140d5565b9081526020016040518091039020600a01805480602002602001604051908101604052809291908181526020018280548015610e4e57602002820191906000526020600020905b8160009054906101000a900473ffffffffffffffffffffffffffffffffffffffff1673ffffffffffffffffffffffffffffffffffffffff1681526020019060010190808311610e04575b5050505050905092915050565b8042600282604051610e6d9190614038565b90815260200160405180910390206005015411610ebf576040517f08c379a0000000000000000000000000000000000000000000000000000000008152600401610eb6906146a0565b60405180910390fd5b6000600283604051610ed19190614038565b908152602001604051809103902060090160003373ffffffffffffffffffffffffffffffffffffffff1673ffffffffffffffffffffffffffffffffffffffff16815260200190815260200160002060010160159054906101000a900467ffffffffffffffff1667ffffffffffffffff1611610f81576040517f08c379a0000000000000000000000000000000000000000000000000000000008152600401610f7890614732565b60405180910390fd5b600282604051610f919190614038565b908152602001604051809103902060080160009054906101000a900460ff16610fef576040517f08c379a0000000000000000000000000000000000000000000000000000000008152600401610fe6906147c4565b60405180910390fd5b60006002836040516110019190614038565b908152602001604051809103902060090160003373ffffffffffffffffffffffffffffffffffffffff1673ffffffffffffffffffffffffffffffffffffffff16815260200190815260200160002060020160009054906101000a90046fffffffffffffffffffffffffffffffff166fffffffffffffffffffffffffffffffff16905060005b6002846040516110969190614038565b9081526020016040518091039020600401805490508167ffffffffffffffff1610156113e4576002846040516110cc9190614038565b90815260200160405180910390206004018167ffffffffffffffff16815481106110f9576110f861457a565b5b90600052602060002090600491828204019190066008029054906101000a900467ffffffffffffffff1667ffffffffffffffff1660028560405161113d9190614038565b908152602001604051809103902060090160003373ffffffffffffffffffffffffffffffffffffffff1673ffffffffffffffffffffffffffffffffffffffff1681526020019081526020016000206003018267ffffffffffffffff16815481106111aa576111a961457a565b5b90600052602060002090600491828204019190066008029054906101000a900467ffffffffffffffff166002866040516111e49190614038565b90815260200160405180910390206004018367ffffffffffffffff16815481106112115761121061457a565b5b90600052602060002090600491828204019190066008029054906101000a900467ffffffffffffffff1661124591906147e4565b67ffffffffffffffff161015611290576040517f08c379a0000000000000000000000000000000000000000000000000000000008152600401611287906148ba565b60405180910390fd5b6002846040516112a09190614038565b908152602001604051809103902060090160003373ffffffffffffffffffffffffffffffffffffffff1673ffffffffffffffffffffffffffffffffffffffff1681526020019081526020016000206003018167ffffffffffffffff168154811061130d5761130c61457a565b5b90600052602060002090600491828204019190066008029054906101000a900467ffffffffffffffff166002856040516113479190614038565b90815260200160405180910390206004018267ffffffffffffffff16815481106113745761137361457a565b5b90600052602060002090600491828204019190066008028282829054906101000a900467ffffffffffffffff166113ab91906147e4565b92506101000a81548167ffffffffffffffff021916908367ffffffffffffffff16021790555080806113dc906148da565b915050611086565b50806002846040516113f69190614038565b908152602001604051809103902060060160008282546114169190614546565b9250508190555060003373ffffffffffffffffffffffffffffffffffffffff16826040516114439061493c565b60006040518083038185875af1925050503d8060008114611480576040519150601f19603f3d011682016040523d82523d6000602084013e611485565b606091505b50509050806114c9576040517f08c379a00000000000000000000000000000000000000000000000000000000081526004016114c0906149c3565b60405180910390fd5b50505050565b60008167ffffffffffffffff16116114e657600080fd5b6002836040516114f69190614038565b9081526020016040518091039020600401805490508267ffffffffffffffff1610611556576040517f08c379a000000000000000000000000000000000000000000000000000000000815260040161154d90614a2f565b60405180910390fd5b6002836040516115669190614038565b90815260200160405180910390206004018267ffffffffffffffff16815481106115935761159261457a565b5b90600052602060002090600491828204019190066008029054906101000a900467ffffffffffffffff1667ffffffffffffffff168167ffffffffffffffff161115611613576040517f08c379a000000000000000000000000000000000000000000000000000000000815260040161160a90614a9b565b60405180910390fd5b6002836040516116239190614038565b908152602001604051809103902060080160029054906101000a900460ff16158061171757506002836040516116599190614038565b908152602001604051809103902060080160039054906101000a900467ffffffffffffffff1667ffffffffffffffff168160028560405161169a9190614038565b908152602001604051809103902060090160003373ffffffffffffffffffffffffffffffffffffffff1673ffffffffffffffffffffffffffffffffffffffff16815260200190815260200160002060010160159054906101000a900467ffffffffffffffff1661170a91906147e4565b67ffffffffffffffff1611155b611756576040517f08c379a000000000000000000000000000000000000000000000000000000000815260040161174d90614b2d565b60405180910390fd5b60006002846040516117689190614038565b90815260200160405180910390206002018367ffffffffffffffff16815481106117955761179461457a565b5b90600052602060002090600291828204019190066010029054906101000a90046fffffffffffffffffffffffffffffffff168267ffffffffffffffff166117dc9190614b4d565b9050806fffffffffffffffffffffffffffffffff16341015611833576040517f08c379a000000000000000000000000000000000000000000000000000000000815260040161182a90614be3565b60405180910390fd5b6002846040516118439190614038565b908152602001604051809103902060090160003373ffffffffffffffffffffffffffffffffffffffff1673ffffffffffffffffffffffffffffffffffffffff16815260200190815260200160002060010160149054906101000a900460ff16611baf5760016002856040516118b89190614038565b908152602001604051809103902060090160003373ffffffffffffffffffffffffffffffffffffffff1673ffffffffffffffffffffffffffffffffffffffff16815260200190815260200160002060010160146101000a81548160ff021916908315150217905550336002856040516119319190614038565b908152602001604051809103902060090160003373ffffffffffffffffffffffffffffffffffffffff1673ffffffffffffffffffffffffffffffffffffffff16815260200190815260200160002060010160006101000a81548173ffffffffffffffffffffffffffffffffffffffff021916908373ffffffffffffffffffffffffffffffffffffffff1602179055506002846040516119d09190614038565b9081526020016040518091039020600a01805490506002856040516119f59190614038565b908152602001604051809103902060090160003373ffffffffffffffffffffffffffffffffffffffff1673ffffffffffffffffffffffffffffffffffffffff16815260200190815260200160002060000181905550600284604051611a5a9190614038565b9081526020016040518091039020600a01339080600181540180825580915050600190039060005260206000200160009091909190916101000a81548173ffffffffffffffffffffffffffffffffffffffff021916908373ffffffffffffffffffffffffffffffffffffffff160217905550600284604051611adc9190614038565b90815260200160405180910390206004018054905067ffffffffffffffff811115611b0a57611b09613537565b5b604051908082528060200260200182016040528015611b385781602001602082028036833780820191505090505b50600285604051611b499190614038565b908152602001604051809103902060090160003373ffffffffffffffffffffffffffffffffffffffff1673ffffffffffffffffffffffffffffffffffffffff1681526020019081526020016000206003019080519060200190611bad92919061342f565b505b81600285604051611bc09190614038565b908152602001604051809103902060090160003373ffffffffffffffffffffffffffffffffffffffff1673ffffffffffffffffffffffffffffffffffffffff16815260200190815260200160002060010160158282829054906101000a900467ffffffffffffffff16611c3391906147e4565b92506101000a81548167ffffffffffffffff021916908367ffffffffffffffff16021790555081600285604051611c6a9190614038565b908152602001604051809103902060090160003373ffffffffffffffffffffffffffffffffffffffff1673ffffffffffffffffffffffffffffffffffffffff1681526020019081526020016000206003018467ffffffffffffffff1681548110611cd757611cd661457a565b5b90600052602060002090600491828204019190066008028282829054906101000a900467ffffffffffffffff16611d0e91906147e4565b92506101000a81548167ffffffffffffffff021916908367ffffffffffffffff16021790555080600285604051611d459190614038565b908152602001604051809103902060090160003373ffffffffffffffffffffffffffffffffffffffff1673ffffffffffffffffffffffffffffffffffffffff16815260200190815260200160002060020160008282829054906101000a90046fffffffffffffffffffffffffffffffff16611dc09190614c03565b92506101000a8154816fffffffffffffffffffffffffffffffff02191690836fffffffffffffffffffffffffffffffff16021790555081600285604051611e079190614038565b90815260200160405180910390206004018467ffffffffffffffff1681548110611e3457611e3361457a565b5b90600052602060002090600491828204019190066008028282829054906101000a900467ffffffffffffffff16611e6b9190614c49565b92506101000a81548167ffffffffffffffff021916908367ffffffffffffffff16021790555080600285604051611ea29190614038565b908152602001604051809103902060090160003373ffffffffffffffffffffffffffffffffffffffff1673ffffffffffffffffffffffffffffffffffffffff16815260200190815260200160002060020160008282829054906101000a90046fffffffffffffffffffffffffffffffff16611f1d9190614c03565b92506101000a8154816fffffffffffffffffffffffffffffffff02191690836fffffffffffffffffffffffffffffffff160217905550806fffffffffffffffffffffffffffffffff16600285604051611f769190614038565b90815260200160405180910390206006016000828254611f969190614c7d565b925050819055506000611fab85858533613060565b905080600286604051611fbe9190614038565b908152602001604051809103902060090160003373ffffffffffffffffffffffffffffffffffffffff1673ffffffffffffffffffffffffffffffffffffffff1681526020019081526020016000206004018190555060008054906101000a900473ffffffffffffffffffffffffffffffffffffffff1673ffffffffffffffffffffffffffffffffffffffff1663d204c45e33876040518363ffffffff1660e01b815260040161206e929190614ce2565b600060405180830381600087803b15801561208857600080fd5b505af115801561209c573d6000803e3d6000fd5b50505050816fffffffffffffffffffffffffffffffff163411156121855760003373ffffffffffffffffffffffffffffffffffffffff16836fffffffffffffffffffffffffffffffff16346120f19190614546565b6040516120fd9061493c565b60006040518083038185875af1925050503d806000811461213a576040519150601f19603f3d011682016040523d82523d6000602084013e61213f565b606091505b5050905080612183576040517f08c379a000000000000000000000000000000000000000000000000000000000815260040161217a90614d84565b60405180910390fd5b505b3373ffffffffffffffffffffffffffffffffffffffff167f6d0598831047f50508c3bf6a106db26bd6f8782df0ab21f8df187b556ec4cb1b866040516121cb9190613fda565b60405180910390a25050505050565b600082828080601f016020809104026020016040519081016040528093929190818152602001838380828437600081840152601f19601f820116905080830192505050505050506002816040516122319190614038565b908152602001604051809103902060080160019054906101000a900460ff1661228f576040517f08c379a000000000000000000000000000000000000000000000000000000000815260040161228690614465565b60405180910390fd5b83838080601f016020809104026020016040519081016040528093929190818152602001838380828437600081840152601f19601f820116905080830192505050505050503373ffffffffffffffffffffffffffffffffffffffff166002826040516122fb9190614038565b908152602001604051809103902060000160009054906101000a900473ffffffffffffffffffffffffffffffffffffffff1673ffffffffffffffffffffffffffffffffffffffff1614612383576040517f08c379a000000000000000000000000000000000000000000000000000000000815260040161237a906144f7565b60405180910390fd5b600285856040516123959291906140d5565b9081526020016040518091039020600601549250505092915050565b6002818051602081018201805184825260208301602085012081835280955050505050506000915090508060000160009054906101000a900473ffffffffffffffffffffffffffffffffffffffff16908060010180546124109061407e565b80601f016020809104026020016040519081016040528092919081815260200182805461243c9061407e565b80156124895780601f1061245e57610100808354040283529160200191612489565b820191906000526020600020905b81548152906001019060200180831161246c57829003601f168201915b5050505050908060050154908060060154908060070154908060080160009054906101000a900460ff16908060080160019054906101000a900460ff16908060080160029054906101000a900460ff16908060080160039054906101000a900467ffffffffffffffff16905089565b806002816040516125099190614038565b908152602001604051809103902060080160019054906101000a900460ff16612567576040517f08c379a000000000000000000000000000000000000000000000000000000000815260040161255e90614465565b60405180910390fd5b813373ffffffffffffffffffffffffffffffffffffffff1660028260405161258f9190614038565b908152602001604051809103902060000160009054906101000a900473ffffffffffffffffffffffffffffffffffffffff1673ffffffffffffffffffffffffffffffffffffffff1614612617576040517f08c379a000000000000000000000000000000000000000000000000000000000815260040161260e906144f7565b60405180910390fd5b82426002826040516126299190614038565b9081526020016040518091039020600501541061267b576040517f08c379a000000000000000000000000000000000000000000000000000000000815260040161267290614e16565b60405180910390fd5b600060028560405161268d9190614038565b908152602001604051809103902060060154905060006002866040516126b39190614038565b90815260200160405180910390206006018190555060006002866040516126da9190614038565b908152602001604051809103902060000160009054906101000a900473ffffffffffffffffffffffffffffffffffffffff1673ffffffffffffffffffffffffffffffffffffffff168260405161272f9061493c565b60006040518083038185875af1925050503d806000811461276c576040519150601f19603f3d011682016040523d82523d6000602084013e612771565b606091505b50509050806127b5576040517f08c379a00000000000000000000000000000000000000000000000000000000081526004016127ac90614e82565b60405180910390fd5b505050505050565b826002816040516127ce9190614038565b908152602001604051809103902060080160019054906101000a900460ff1661282c576040517f08c379a000000000000000000000000000000000000000000000000000000000815260040161282390614465565b60405180910390fd5b833373ffffffffffffffffffffffffffffffffffffffff166002826040516128549190614038565b908152602001604051809103902060000160009054906101000a900473ffffffffffffffffffffffffffffffffffffffff1673ffffffffffffffffffffffffffffffffffffffff16146128dc576040517f08c379a00000000000000000000000000000000000000000000000000000000081526004016128d3906144f7565b60405180910390fd5b6002856040516128ec9190614038565b9081526020016040518091039020600401805490508484905014612945576040517f08c379a000000000000000000000000000000000000000000000000000000000815260040161293c90614f3a565b60405180910390fd5b60005b6002866040516129589190614038565b9081526020016040518091039020600401805490508167ffffffffffffffff161015612bbc5760028660405161298e9190614038565b90815260200160405180910390206004018167ffffffffffffffff16815481106129bb576129ba61457a565b5b90600052602060002090600491828204019190066008029054906101000a900467ffffffffffffffff1667ffffffffffffffff1685858367ffffffffffffffff16818110612a0c57612a0b61457a565b5b9050602002016020810190612a219190614f5a565b600288604051612a319190614038565b90815260200160405180910390206004018367ffffffffffffffff1681548110612a5e57612a5d61457a565b5b90600052602060002090600491828204019190066008029054906101000a900467ffffffffffffffff16612a9291906147e4565b67ffffffffffffffff161015612add576040517f08c379a0000000000000000000000000000000000000000000000000000000008152600401612ad490614fd3565b60405180910390fd5b84848267ffffffffffffffff16818110612afa57612af961457a565b5b9050602002016020810190612b0f9190614f5a565b600287604051612b1f9190614038565b90815260200160405180910390206004018267ffffffffffffffff1681548110612b4c57612b4b61457a565b5b90600052602060002090600491828204019190066008028282829054906101000a900467ffffffffffffffff16612b8391906147e4565b92506101000a81548167ffffffffffffffff021916908367ffffffffffffffff1602179055508080612bb4906148da565b915050612948565b505050505050565b606082600281604051612bd79190614038565b908152602001604051809103902060080160019054906101000a900460ff16612c35576040517f08c379a0000000000000000000000000000000000000000000000000000000008152600401612c2c90614465565b60405180910390fd5b600284604051612c459190614038565b908152602001604051809103902060090160008473ffffffffffffffffffffffffffffffffffffffff1673ffffffffffffffffffffffffffffffffffffffff168152602001908152602001600020600301805480602002602001604051908101604052809291908181526020018280548015612d1457602002820191906000526020600020906000905b82829054906101000a900467ffffffffffffffff1667ffffffffffffffff1681526020019060080190602082600701049283019260010382029150808411612ccf5790505b505050505091505092915050565b606481565b82600281604051612d389190614038565b908152602001604051809103902060080160019054906101000a900460ff16612d96576040517f08c379a0000000000000000000000000000000000000000000000000000000008152600401612d8d90614465565b60405180910390fd5b833373ffffffffffffffffffffffffffffffffffffffff16600282604051612dbe9190614038565b908152602001604051809103902060000160009054906101000a900473ffffffffffffffffffffffffffffffffffffffff1673ffffffffffffffffffffffffffffffffffffffff1614612e46576040517f08c379a0000000000000000000000000000000000000000000000000000000008152600401612e3d906144f7565b60405180910390fd5b600285604051612e569190614038565b9081526020016040518091039020600201805490508467ffffffffffffffff1610612eb6576040517f08c379a0000000000000000000000000000000000000000000000000000000008152600401612ead90614a2f565b60405180910390fd5b82600286604051612ec79190614038565b90815260200160405180910390206002018567ffffffffffffffff1681548110612ef457612ef361457a565b5b90600052602060002090600291828204019190066010026101000a8154816fffffffffffffffffffffffffffffffff02191690836fffffffffffffffffffffffffffffffff1602179055505050505050565b600060028383604051612f5a9291906140d5565b908152602001604051809103902060090160003373ffffffffffffffffffffffffffffffffffffffff1673ffffffffffffffffffffffffffffffffffffffff16815260200190815260200160002060040154905092915050565b60038181548110612fc457600080fd5b906000526020600020016000915090508054612fdf9061407e565b80601f016020809104026020016040519081016040528092919081815260200182805461300b9061407e565b80156130585780601f1061302d57610100808354040283529160200191613058565b820191906000526020600020905b81548152906001019060200180831161303b57829003601f168201915b505050505081565b6000808585858560405160200161307a9493929190615071565b60405160208183030381529060405280519060200120905080915050949350505050565b8280546130aa9061407e565b90600052602060002090601f0160209004810192826130cc5760008555613113565b82601f106130e557803560ff1916838001178555613113565b82800160010185558215613113579182015b828111156131125782358255916020019190600101906130f7565b5b50905061312091906134eb565b5090565b828054828255906000526020600020906003016004900481019282156131d95791602002820160005b838211156131a357833567ffffffffffffffff1683826101000a81548167ffffffffffffffff021916908367ffffffffffffffff160217905550926020019260080160208160070104928301926001030261314d565b80156131d75782816101000a81549067ffffffffffffffff02191690556008016020816007010492830192600103026131a3565b505b5090506131e691906134eb565b5090565b828054828255906000526020600020906001016002900481019282156132bf5791602002820160005b838211156132815783356fffffffffffffffffffffffffffffffff1683826101000a8154816fffffffffffffffffffffffffffffffff02191690836fffffffffffffffffffffffffffffffff1602179055509260200192601001602081600f01049283019260010302613213565b80156132bd5782816101000a8154906fffffffffffffffffffffffffffffffff0219169055601001602081600f01049283019260010302613281565b505b5090506132cc91906134eb565b5090565b5080546132dc9061407e565b6000825580601f106132ee575061330d565b601f01602090049060005260206000209081019061330c91906134eb565b5b50565b50805460008255600101600290049060005260206000209081019061333591906134eb565b50565b508054600082559060005260206000209081019061335691906134eb565b50565b50805460008255600301600490049060005260206000209081019061337e91906134eb565b50565b508054600082559060005260206000209081019061339f91906134eb565b50565b8280546133ae9061407e565b90600052602060002090601f0160209004810192826133d0576000855561341e565b82601f106133e1578054855561341e565b8280016001018555821561341e57600052602060002091601f016020900482015b8281111561341d578254825591600101919060010190613402565b5b50905061342b91906134eb565b5090565b828054828255906000526020600020906003016004900481019282156134da5791602002820160005b838211156134a457835183826101000a81548167ffffffffffffffff021916908367ffffffffffffffff1602179055509260200192600801602081600701049283019260010302613458565b80156134d85782816101000a81549067ffffffffffffffff02191690556008016020816007010492830192600103026134a4565b505b5090506134e791906134eb565b5090565b5b808211156135045760008160009055506001016134ec565b5090565b6000604051905090565b600080fd5b600080fd5b600080fd5b600080fd5b6000601f19601f8301169050919050565b7f4e487b7100000000000000000000000000000000000000000000000000000000600052604160045260246000fd5b61356f82613526565b810181811067ffffffffffffffff8211171561358e5761358d613537565b5b80604052505050565b60006135a1613508565b90506135ad8282613566565b919050565b600067ffffffffffffffff8211156135cd576135cc613537565b5b6135d682613526565b9050602081019050919050565b82818337600083830152505050565b6000613605613600846135b2565b613597565b90508281526020810184848401111561362157613620613521565b5b61362c8482856135e3565b509392505050565b600082601f8301126136495761364861351c565b5b81356136598482602086016135f2565b91505092915050565b60006020828403121561367857613677613512565b5b600082013567ffffffffffffffff81111561369657613695613517565b5b6136a284828501613634565b91505092915050565b600081519050919050565b600082825260208201905092915050565b6000819050602082019050919050565b600067ffffffffffffffff82169050919050565b6136f4816136d7565b82525050565b600061370683836136eb565b60208301905092915050565b6000602082019050919050565b600061372a826136ab565b61373481856136b6565b935061373f836136c7565b8060005b8381101561377057815161375788826136fa565b975061376283613712565b925050600181019050613743565b5085935050505092915050565b60006020820190508181036000830152613797818461371f565b905092915050565b6000819050919050565b6137b28161379f565b81146137bd57600080fd5b50565b6000813590506137cf816137a9565b92915050565b6000602082840312156137eb576137ea613512565b5b60006137f9848285016137c0565b91505092915050565b600073ffffffffffffffffffffffffffffffffffffffff82169050919050565b600061382d82613802565b9050919050565b61383d81613822565b82525050565b600081519050919050565b600082825260208201905092915050565b60005b8381101561387d578082015181840152602081019050613862565b8381111561388c576000848401525b50505050565b600061389d82613843565b6138a7818561384e565b93506138b781856020860161385f565b6138c081613526565b840191505092915050565b6138d48161379f565b82525050565b60008115159050919050565b6138ef816138da565b82525050565b6138fe816136d7565b82525050565b60006101208201905061391a600083018c613834565b818103602083015261392c818b613892565b905061393b604083018a6138cb565b61394860608301896138cb565b61395560808301886138cb565b61396260a08301876138e6565b61396f60c08301866138e6565b61397c60e08301856138e6565b61398a6101008301846138f5565b9a9950505050505050505050565b600080fd5b600080fd5b60008083601f8401126139b8576139b761351c565b5b8235905067ffffffffffffffff8111156139d5576139d4613998565b5b6020830191508360018202830111156139f1576139f061399d565b5b9250929050565b60008083601f840112613a0e57613a0d61351c565b5b8235905067ffffffffffffffff811115613a2b57613a2a613998565b5b602083019150836020820283011115613a4757613a4661399d565b5b9250929050565b60008083601f840112613a6457613a6361351c565b5b8235905067ffffffffffffffff811115613a8157613a80613998565b5b602083019150836020820283011115613a9d57613a9c61399d565b5b9250929050565b613aad816138da565b8114613ab857600080fd5b50565b600081359050613aca81613aa4565b92915050565b613ad9816136d7565b8114613ae457600080fd5b50565b600081359050613af681613ad0565b92915050565b600080600080600080600080600060c08a8c031215613b1e57613b1d613512565b5b60008a013567ffffffffffffffff811115613b3c57613b3b613517565b5b613b488c828d016139a2565b995099505060208a013567ffffffffffffffff811115613b6b57613b6a613517565b5b613b778c828d016139f8565b975097505060408a013567ffffffffffffffff811115613b9a57613b99613517565b5b613ba68c828d01613a4e565b95509550506060613bb98c828d01613abb565b9350506080613bca8c828d01613ae7565b92505060a0613bdb8c828d016137c0565b9150509295985092959850929598565b60008060208385031215613c0257613c01613512565b5b600083013567ffffffffffffffff811115613c2057613c1f613517565b5b613c2c858286016139a2565b92509250509250929050565b600081519050919050565b600082825260208201905092915050565b6000819050602082019050919050565b6000613c6f82613802565b9050919050565b613c7f81613c64565b82525050565b6000613c918383613c76565b60208301905092915050565b6000602082019050919050565b6000613cb582613c38565b613cbf8185613c43565b9350613cca83613c54565b8060005b83811015613cfb578151613ce28882613c85565b9750613ced83613c9d565b925050600181019050613cce565b5085935050505092915050565b60006020820190508181036000830152613d228184613caa565b905092915050565b600080600060608486031215613d4357613d42613512565b5b600084013567ffffffffffffffff811115613d6157613d60613517565b5b613d6d86828701613634565b9350506020613d7e86828701613ae7565b9250506040613d8f86828701613ae7565b9150509250925092565b6000602082019050613dae60008301846138cb565b92915050565b600080600060408486031215613dcd57613dcc613512565b5b600084013567ffffffffffffffff811115613deb57613dea613517565b5b613df786828701613634565b935050602084013567ffffffffffffffff811115613e1857613e17613517565b5b613e24868287016139f8565b92509250509250925092565b613e3981613c64565b8114613e4457600080fd5b50565b600081359050613e5681613e30565b92915050565b60008060408385031215613e7357613e72613512565b5b600083013567ffffffffffffffff811115613e9157613e90613517565b5b613e9d85828601613634565b9250506020613eae85828601613e47565b9150509250929050565b600060ff82169050919050565b613ece81613eb8565b82525050565b6000602082019050613ee96000830184613ec5565b92915050565b60006fffffffffffffffffffffffffffffffff82169050919050565b613f1481613eef565b8114613f1f57600080fd5b50565b600081359050613f3181613f0b565b92915050565b600080600060608486031215613f5057613f4f613512565b5b600084013567ffffffffffffffff811115613f6e57613f6d613517565b5b613f7a86828701613634565b9350506020613f8b86828701613ae7565b9250506040613f9c86828701613f22565b9150509250925092565b6000819050919050565b613fb981613fa6565b82525050565b6000602082019050613fd46000830184613fb0565b92915050565b60006020820190508181036000830152613ff48184613892565b905092915050565b600081905092915050565b600061401282613843565b61401c8185613ffc565b935061402c81856020860161385f565b80840191505092915050565b60006140448284614007565b915081905092915050565b7f4e487b7100000000000000000000000000000000000000000000000000000000600052602260045260246000fd5b6000600282049050600182168061409657607f821691505b602082108114156140aa576140a961404f565b5b50919050565b60006140bc8385613ffc565b93506140c98385846135e3565b82840190509392505050565b60006140e28284866140b0565b91508190509392505050565b7f476976656e206576656e7420494420697320616c726561647920696e2075736560008201527f2e00000000000000000000000000000000000000000000000000000000000000602082015250565b600061414a60218361384e565b9150614155826140ee565b604082019050919050565b600060208201905081810360008301526141798161413d565b9050919050565b7f446966666572656e74206e756d626572206f66207469636b657420747970657360008201527f20676976656e20627920707269636520616e64206e756d62657220617661696c60208201527f61626c65206172726179732e0000000000000000000000000000000000000000604082015250565b6000614202604c8361384e565b915061420d82614180565b606082019050919050565b60006020820190508181036000830152614231816141f5565b9050919050565b7f43616e6e6f7420637265617465206576656e742077697468207a65726f20746960008201527f636b65742074797065732e000000000000000000000000000000000000000000602082015250565b6000614294602b8361384e565b915061429f82614238565b604082019050919050565b600060208201905081810360008301526142c381614287565b9050919050565b7f4d6178696d756d206e756d626572206f66207469636b6574207479706573206560008201527f786365656465642e000000000000000000000000000000000000000000000000602082015250565b600061432660288361384e565b9150614331826142ca565b604082019050919050565b6000602082019050818103600083015261435581614319565b9050919050565b7f446561646c696e652063616e6e6f7420626520696e2074686520706173740000600082015250565b6000614392601e8361384e565b915061439d8261435c565b602082019050919050565b600060208201905081810360008301526143c181614385565b9050919050565b60006143d4838561384e565b93506143e18385846135e3565b6143ea83613526565b840190509392505050565b600060208201905081810360008301526144108184866143c8565b90509392505050565b7f4576656e74207769746820676976656e204944206e6f7420666f756e642e0000600082015250565b600061444f601e8361384e565b915061445a82614419565b602082019050919050565b6000602082019050818103600083015261447e81614442565b9050919050565b7f53656e646572206973206e6f7420746865206f776e6572206f6620746869732060008201527f6576656e74000000000000000000000000000000000000000000000000000000602082015250565b60006144e160258361384e565b91506144ec82614485565b604082019050919050565b60006020820190508181036000830152614510816144d4565b9050919050565b7f4e487b7100000000000000000000000000000000000000000000000000000000600052601160045260246000fd5b60006145518261379f565b915061455c8361379f565b92508282101561456f5761456e614517565b5b828203905092915050565b7f4e487b7100000000000000000000000000000000000000000000000000000000600052603260045260246000fd5b60008190508160005260206000209050919050565b600081546145cb8161407e565b6145d58186613ffc565b945060018216600081146145f0576001811461460157614634565b60ff19831686528186019350614634565b61460a856145a9565b60005b8381101561462c5781548189015260018201915060208101905061460d565b838801955050505b50505092915050565b600061464982846145be565b915081905092915050565b7f4576656e7420646561646c696e65206861732070617373656400000000000000600082015250565b600061468a60198361384e565b915061469582614654565b602082019050919050565b600060208201905081810360008301526146b98161467d565b9050919050565b7f5573657220646f6573206e6f74206f776e20616e79207469636b65747320746f60008201527f2074686973206576656e742e0000000000000000000000000000000000000000602082015250565b600061471c602c8361384e565b9150614727826146c0565b604082019050919050565b6000602082019050818103600083015261474b8161470f565b9050919050565b7f5469636b65742073616c65206973206c6f636b65642c2077686963682064697360008201527f61626c6573206275796261636b2e000000000000000000000000000000000000602082015250565b60006147ae602e8361384e565b91506147b982614752565b604082019050919050565b600060208201905081810360008301526147dd816147a1565b9050919050565b60006147ef826136d7565b91506147fa836136d7565b92508267ffffffffffffffff0382111561481757614816614517565b5b828201905092915050565b7f4661696c656420626563617573652072657475726e6564207469636b6574732060008201527f776f756c6420696e637265617365207469636b657420706f6f6c20706173742060208201527f73746f72616765206c696d69742e000000000000000000000000000000000000604082015250565b60006148a4604e8361384e565b91506148af82614822565b606082019050919050565b600060208201905081810360008301526148d381614897565b9050919050565b60006148e5826136d7565b915067ffffffffffffffff821415614900576148ff614517565b5b600182019050919050565b600081905092915050565b50565b600061492660008361490b565b915061493182614916565b600082019050919050565b600061494782614919565b9150819050919050565b7f52657475726e207472616e7366657220746f20637573746f6d6572206661696c60008201527f65642e0000000000000000000000000000000000000000000000000000000000602082015250565b60006149ad60238361384e565b91506149b882614951565b604082019050919050565b600060208201905081810360008301526149dc816149a0565b9050919050565b7f5469636b6574207479706520646f6573206e6f742065786973742e0000000000600082015250565b6000614a19601b8361384e565b9150614a24826149e3565b602082019050919050565b60006020820190508181036000830152614a4881614a0c565b9050919050565b7f4e6f7420656e6f756768207469636b65747320617661696c61626c652e000000600082015250565b6000614a85601d8361384e565b9150614a9082614a4f565b602082019050919050565b60006020820190508181036000830152614ab481614a78565b9050919050565b7f507572636861736520737572706173736573206d61782070657220637573746f60008201527f6d65722e00000000000000000000000000000000000000000000000000000000602082015250565b6000614b1760248361384e565b9150614b2282614abb565b604082019050919050565b60006020820190508181036000830152614b4681614b0a565b9050919050565b6000614b5882613eef565b9150614b6383613eef565b9250816fffffffffffffffffffffffffffffffff0483118215151615614b8c57614b8b614517565b5b828202905092915050565b7f4e6f7420656e6f756768206574686572207761732073656e742e000000000000600082015250565b6000614bcd601a8361384e565b9150614bd882614b97565b602082019050919050565b60006020820190508181036000830152614bfc81614bc0565b9050919050565b6000614c0e82613eef565b9150614c1983613eef565b9250826fffffffffffffffffffffffffffffffff03821115614c3e57614c3d614517565b5b828201905092915050565b6000614c54826136d7565b9150614c5f836136d7565b925082821015614c7257614c71614517565b5b828203905092915050565b6000614c888261379f565b9150614c938361379f565b9250827fffffffffffffffffffffffffffffffffffffffffffffffffffffffffffffffff03821115614cc857614cc7614517565b5b828201905092915050565b614cdc81613c64565b82525050565b6000604082019050614cf76000830185614cd3565b8181036020830152614d098184613892565b90509392505050565b7f52657475726e206f66206578636573732066756e647320746f2073656e64657260008201527f206661696c65642e000000000000000000000000000000000000000000000000602082015250565b6000614d6e60288361384e565b9150614d7982614d12565b604082019050919050565b60006020820190508181036000830152614d9d81614d61565b9050919050565b7f4576656e7420646561646c696e6520686173206e6f742079657420706173736560008201527f6400000000000000000000000000000000000000000000000000000000000000602082015250565b6000614e0060218361384e565b9150614e0b82614da4565b604082019050919050565b60006020820190508181036000830152614e2f81614df3565b9050919050565b7f5769746864726177616c207472616e73666572206661696c65642e0000000000600082015250565b6000614e6c601b8361384e565b9150614e7782614e36565b602082019050919050565b60006020820190508181036000830152614e9b81614e5f565b9050919050565b7f4c697374206f66206e756d626572206f66207469636b65747320746f2061646460008201527f206d757374206265206f662073616d65206c656e67746820617320657869737460208201527f696e67206c697374206f66207469636b6574732e000000000000000000000000604082015250565b6000614f2460548361384e565b9150614f2f82614ea2565b606082019050919050565b60006020820190508181036000830152614f5381614f17565b9050919050565b600060208284031215614f7057614f6f613512565b5b6000614f7e84828501613ae7565b91505092915050565b7f43616e6e6f742065786365656420325e36342d31207469636b65747300000000600082015250565b6000614fbd601c8361384e565b9150614fc882614f87565b602082019050919050565b60006020820190508181036000830152614fec81614fb0565b9050919050565b60008160c01b9050919050565b600061500b82614ff3565b9050919050565b61502361501e826136d7565b615000565b82525050565b60008160601b9050919050565b600061504182615029565b9050919050565b600061505382615036565b9050919050565b61506b61506682613c64565b615048565b82525050565b600061507d8287614007565b91506150898286615012565b6008820191506150998285615012565b6008820191506150a9828461505a565b6014820191508190509594505050505056fea2646970667358221220b3163210e03eb2160eeb983b6deec199f5e1d3fd83cea66f905273be64a2a79164736f6c63430008090033",
  "linkReferences": {},
  "deployedLinkReferences": {}
}